:020000040800F2
:10000000E004002045010008071100082510000841
:1000100005110008B10100081D15000800000000CE
:100020000000000000000000000000002D1100088A
:10003000B3010008000000002B1100082F11000878
:100040005F0100085F0100085F0100085F01000810
:100050005F0100085F0100085F0100085F01000800
:100060005F0100085F0100085F0100085F010008F0
:100070005F0100085F0100085F0100085F010008E0
:100080005F0100085F0100085F0100085F010008D0
:100090005F0100085F0100085F0100085F010008C0
:1000A0005F0100085F0100085F0100085F010008B0
:1000B0005F0100085F0100085F0100085F010008A0
:1000C0005F0100085F0100085F0100085F01000890
:1000D0005F01000805150008111500085F01000800
:1000E0005F0100085F0100085F0100085F01000870
:1000F0005F0100085F0100085F0100085F01000860
:100100005F0100085F0100085F0100085F0100084F
:100110005F0100085F010008D51100085F010008B9
:100120005F0100085F0100085F0100085F0100082F
:10013000DFF80CD000F02AF8004800473D15000811
:10014000E00400200648804706480047FEE7FEE737
:10015000FEE7FEE7FEE7FEE7FEE7FEE7FEE7FEE777
:100160008D11000831010008D2B201E000F8012B26
:10017000491EFBD270470022F6E710B513460A4627
:1001800004461946FFF7F0FF204610BD064C074D08
:1001900006E0E06840F0010394E807009847103457
:1001A000AC42F6D3FFF7C8FF28160008481600082F
:1001B000FEE770472DE9F05F90F821100024022936
:1001C00003D004218163012485E001680A6822F0DC
:1001D0000E020A6001680A6822F001020A603F4EBE
:1001E0003E4FB215DFF8F4C0DFF8F090DFF8ECA076
:1001F000DFF8E8B0DFF8E4E00168783F13011502AA
:10020000ACF1640CA9F15009AAF13C0AABF1280B3E
:10021000AEF1140E4FF48018B14227D9B9420ED076
:10022000614512D049451DD0514518D0594518D0C7
:10023000714501D1424615E0294EB14201D101225A
:1002400010E0274E1436B14201D110220AE0244EAC
:100250002836B14206D0224A3C32914201D11A4698
:1002600000E02A461E49091F0A602BE0B94213D05C
:10027000614517D0494522D051451DD059451DD063
:10028000714501D142461AE0B14202D14FF080726D
:1002900015E0134EB14201D1012210E0104E143688
:1002A000B14201D110220AE00D4E2836B14206D0EB
:1002B0000B4A3C32914201D11A4600E02A460749D6
:1002C00080394A60012180F82110002180F8201037
:1002D000416B01B188472046BDE8F09F8000024095
:1002E000080402402DE9F84FDFF8B8A100220AF116
:1002F000040B144601274FF00F090BF1040E00BF49
:100300000B6807FA04F52B40AB4274D1DFF898C1B3
:100310004E68A6EB0C0866452BD00DDC032E34D0BE
:1003200005DC36B3012E19D0022E2FD11BE0112E81
:1003300016D0122E2AD119E0B8F5881F19D006DC84
:10034000B8F5803F15D0B8F5801F1FD111E0B8F582
:10035000001F0ED0B8F5041F18D10AE0CA6815E0D6
:10036000CA68121D12E0CA6808320FE0CA680C326F
:100370000CE08A682AB1012A4FF0080203D04561D7
:1003800004E0042202E0056100E00022FF2B01D816
:10039000064601E000F104064FEA840501D9A5F103
:1003A0002005D6F800C009FA05F82CEA080C02FA74
:1003B00005F54CEA050CC6F800C04D68ED006AD59D
:1003C0003A4DAE6946F00106AE61AD6924F0030610
:1003D00005F001050095364D06EB050CDCF80850DC
:1003E000A6074FEA167809FA08F6B543314EB0422F
:1003F00002D100261AE04EE02F4EB04201D1012674
:1004000014E02E4EB04201D102260FE02C4EB04235
:1004100001D103260AE02B4EB04201D1042605E0AB
:10042000294EB04201D1052600E0062606FA08F65C
:100430002E43CCF808604D68DAF80060ED035546AD
:1004400001D51E4300E09E432E604D68AD0305D5E7
:10045000DBF800601E43CBF8006004E0DBF80050DE
:100460009D43CBF800504D68DEF80060ED02754604
:1004700001D51E4300E09E432E604D68AD0205D5B8
:10048000084D0C352E681E432E6004E0054E0C36D8
:1004900035689D433560641C102CFFF431AFBDE816
:1004A000F88F00000004014000001110001002400D
:1004B0000000014000080140000C01400010014014
:1004C0000014014000180140001C01400AB1016104
:1004D00070470904FBE7000001488068704700008E
:1004E0000400002070B5040011D021684CF6CC4007
:1004F0000860216845F255500860D4E90001416068
:100500002168A0688860FFF7E7FF054609E0012041
:1005100070BD00BFFFF7E0FF401B302801D903206A
:1005200070BD2068C0680028F4D121684AF6AA206E
:100530000860002070BD0000024881680278114404
:100540008160704704000020074810B5016841F041
:1005500010010160032000F077F8002000F006F899
:1005600000F024F8002010BD0020024070B50D4DB1
:1005700004464FF47A712878B1FBF0F00A49096813
:10058000B1FBF0F000F014FB48B9102C07D20022A8
:100590002146501E00F038F800206C6070BD01202C
:1005A00070BD000004000020000000200E4808B5C7
:1005B000816941F001018161816901F001010091CE
:1005C000C16941F08051C161C06900F08050009064
:1005D000052000F039F80548416821F0E06141F05C
:1005E0000071416008BD00000010024000000140A1
:1005F00000F01F02012191404009800000F1E0203D
:10060000C0F8001170470000F0B40E4B1B680C4698
:10061000C3F30223C3F10705042D00D90425191DD6
:10062000072901D2002300E0DB1E012606FA05F1AE
:10063000491E214099409E40761E16403143F0BC31
:1006400000F063BD0CED00E0064900F00702086809
:100650004FF6FF03184040EA0220034A10430860A7
:10066000704700000CED00E00000FA057047000044
:100670002DE9F047DFF8548105460E46D8F8000012
:1006800000F00700B0420CD2D8F8001021F00701AA
:100690003143C8F80010D8F8000000F00700B0425D
:1006A0006FD128684A4C810712D5400703D560688E
:1006B00040F4E06060602878000703D5606840F48B
:1006C000605060606068A96820F0F00008436060D6
:1006D0002878C00744D06868012816D0216802280D
:1006E00016D0890700294CDA616821F00301014323
:1006F0006160FFF7F1FE6968074641F28830012921
:100700000ED00229814618D026E021688903E9E746
:100710008901E7E7FFF7E0FEC11B494501D918E071
:1007200081466068C0F381000128F3D118E000BF62
:10073000FFF7D2FEC11B49450BD86068C0F38100AA
:100740000228F5D10CE000BFFFF7C6FEC11B4945EA
:1007500002D90320BDE8F087606810F00C0FF3D1D8
:10076000D8F80010404601F00701B1420BD90168EA
:1007700021F0070131430160006800F00700B0423A
:1007800001D00120E6E72878400705D56068E968D0
:1007900020F4E060084360602878000706D56068B0
:1007A000296920F4605040EAC100606000F03CF824
:1007B0006168084AC1F30311515CC84006490860EA
:1007C0000020FFF7D3FE0020C4E700000020024015
:1007D000001002401016000800000020014901200E
:1007E000C8647047000042420448054900684968EF
:1007F000044AC1F30221515CC84070470000002048
:1008000000100240201600080448054900684968A5
:10081000044AC1F3C221515CC84070470000002067
:10082000001002402016000812A185B00FC98DE803
:100830000F0014A0144A006804905168134801F096
:100840000C03042B10D0082B0ED1C1F38343C90332
:100850001DF803000AD5516804AAC1F34041515C58
:100860000A4A5043B0FBF1F005B0704708494843CD
:10087000FAE7000002030405060708090A0B0C0D3D
:100880000E0F1010010200000010024000127A004A
:1008900000093D0010B5044CA068000603D5FFF721
:1008A000E5FE8020A07210BD001002402DE9F84F37
:1008B00004460078B94DC00748D06868C0F381008D
:1008C000012807D06868C0F38100022809D1686850
:1008D000C00306D52868800338D5606800286FD02B
:1008E00034E06068B0F5803F0BD010B1B0F5A02FB8
:1008F00011D0286820F480302860286820F48020F7
:1009000002E0286840F480302860606888B1FFF712
:10091000E3FD064609E0286840F480202860F0E7FF
:10092000FFF7DAFD801B642875D828688003F7D5A7
:100930000CE0FFF7D1FD064605E000BFFFF7CCFD58
:10094000801B6428F0D828688003F7D42078944E60
:1009500080074FF001094FF000083BD5686810F0A0
:100960000C0F07D06868C0F38100022809D16868BD
:10097000C00306D42868800714D5206901281FD138
:1009800010E02069B0B1C6F80090FFF7A5FD07465A
:1009900005E000BFFFF7A0FDC01B0228C4D82868EF
:1009A0008007F7D52868616920F0F80040EAC100A7
:1009B00028600FE0C6F80080FFF78EFD074606E0CE
:1009C000E9E000BFFFF788FDC01B022823D8286894
:1009D0008007F7D4207800072CD57248A169D9B1D7
:1009E000C0F80090FFF778FD074604E0FFF774FDBC
:1009F000C01B02280FD8686A8007F7D56A484FF4F1
:100A0000FA510068B0FBF1F0009000BF0098411E61
:100A10000091FAD20EE080E0C0F80080FFF75CFDA4
:100A2000074604E0FFF758FDC01B022875D8686A26
:100A30008007F7D42078400760D5E8690027C00018
:100A400008D4E86940F08050E861E869012700F0C7
:100A50008050009055480168C90513D40168834649
:100A600041F480710160FFF737FD824606E000BF68
:100A7000FFF732FDA0EB0A0064284ED8DBF8000037
:100A8000C005F5D5E06801280AD008B1052813D0C3
:100A9000286A20F001002862286A20F0040002E0A1
:100AA000286A40F001002862E06841F2883B98B172
:100AB000FFF712FD82460BE0286A40F0040028622E
:100AC000EEE700BFFFF708FDA0EB0A0159455AD831
:100AD000286A8007F6D50CE0FFF7FEFC824605E0A9
:100AE000FFF7FAFCA0EB0A0159454CD8286A8007A9
:100AF000F6D41FB1E86920F08050E861E06988B35E
:100B00006968C1F38101022945D00228C6F86080D6
:100B100004D0FFF7E1FC044638E034E0FFF7DCFCEA
:100B2000074604E0FFF7D8FCC01B02282BD8286832
:100B30008001F7D4206AB0F5803F05D16868A168CC
:100B400020F4003008436860D4E90801084369686C
:100B500021F4741108436860C6F86090FFF7BCFC8C
:100B6000044606E015E000BFFFF7B6FC001B0228B4
:100B700009D828688001F7D50BE000BFFFF7ACFC6F
:100B8000001B022802D90320BDE8F88F28688001E5
:100B9000F4D40020F8E70120F6E70000001002403E
:100BA00000004242800442420000002000700040E9
:100BB00010B5401EB0F1807F01D3012010BD4FF071
:100BC000E02460610F21601700F09FFA0020A0610F
:100BD00007202061002010BD7047704730B590F8A5
:100BE0003C20012A20D0012280F83C20022380F8FA
:100BF0003D3003685C6824F070045C6003685C68E6
:100C00000D682C435C6003689C6824F080049C6041
:100C100003689C6849680C439C6080F83D20002173
:100C200080F83C10084630BD022030BD10B50400ED
:100C300003D094F83D0010B107E0012010BD002062
:100C400084F83C00204600F00DF8022084F83D00B6
:100C5000211D206800F0C4FA012084F83D00002026
:100C600010BD000008B500680649884208D1064852
:100C7000C16941F01001C161C06900F0100000902D
:100C800008BD00000010004000100240704770B521
:100C90000446006801694FF00005C943890715D46F
:100CA000C168C943890711D4E91E01610120207779
:100CB000206880698007204602D0FFF7E7FF04E044
:100CC00000F098F8204600F096F825772068016932
:100CD000C943490717D4C168C943490713D46FF002
:100CE00004010161022020772068806910F4407FB0
:100CF000204602D0FFF7CAFF04E000F07BF8204650
:100D000000F079F8257720680169C943090716D4EE
:100D1000C168C943090712D46FF0080101610420BA
:100D200020772068C0698007204602D0FFF7AEFF19
:100D300004E000F05FF8204600F05DF825772068B9
:100D40000169C943C90617D4C168C943C90613D488
:100D50006FF010010161082020772068C06910F44D
:100D6000407F204602D0FFF791FF04E000F042F8F8
:100D7000204600F040F8257720680169C943C9077B
:100D800008D1C168C943C90704D1891E0161204641
:100D900000F032F820680169C943090609D4C16826
:100DA000C943090605D46FF0800101612046FFF7B1
:100DB00013FF20680169C943490609D4C168C943C2
:100DC000490605D46FF040010161204600F015F896
:100DD00020680169C94389060BD4C168C9438906E3
:100DE00007D46FF0200101612046BDE87040FFF795
:100DF000F4BE70BD70477047704770477047000081
:100E000070B5026804461068D168536910F00F0F7E
:100E100050D003F0010501F4907635435DD0C20750
:100E200005D0CA0503D5E26B42F00102E263420736
:100E300005D5DA0703D0E26B42F00202E2638207D3
:100E400005D5DA0703D0E26B42F00402E263020741
:100E500005D5DA0703D0E26B42F00802E263E26BE9
:100E6000002A33D0800604D5880602D5204600F03B
:100E700013FA20684069E16BC0F38010090700D4C1
:100E800028B3204600F0FAF92068416949061AD5CE
:100E9000416921F040014161606BA0B11B49416390
:100EA000606BFFF787F9002810D0606B416BBDE8DD
:100EB00070400847830610D58B060ED52046BDE846
:100EC000704000F0E9B92046FFF798FF70BD20465A
:100ED000FFF794FF0020E06370BD030606D50B0604
:100EE00004D52046BDE8704000F0DABA4006F3D5DC
:100EF0004806F1D5D168204621F04001D16020217B
:100F000084F8391000F08DF870BD00006D120008F3
:100F100070B5040004D094F83900002510B106E043
:100F2000012070BD84F83850204600F023F82420BA
:100F300084F839002068C16821F40051C16020465E
:100F400000F0F6F92068016921F490410161206800
:100F5000416921F02A0141612068C16841F40051D2
:100F6000C160E563202084F8390084F83A0000204D
:100F700070BD000070B586B0002400940194029406
:100F80000394234E0368234902200322224DB342D7
:100F900019D18B6943F480438B618B6903F48043DF
:100FA00004938B6943F004038B618969039201F018
:100FB000040104910102CDE9001069462846FFF7BB
:100FC00091F928151BE0154EB3421FD1CB6943F4AC
:100FD0000033CB61CB6903F4003304938B6943F096
:100FE00004038B618969039201F0040104910421D7
:100FF000CDE9001069462846FFF774F90820CDE9CD
:101000000004694628460294FFF76CF906B070BDEB
:101010000038014000100240000801400044004038
:1010200070477047FEE700002DE9F04385B00024CB
:1010300030480094019402940394816941F0400186
:101040008161816901F040010491816941F01001E1
:101050008161816901F010010491816941F004010D
:101060008161816901F004010491816941F0080105
:1010700081618069DFF8808000F008000490002220
:1010800020214046FFF722FADFF8709000224FF44B
:1010900090714846FFF71AFA1C20CDE90004694612
:1010A00040460294FFF71EF9012520270226CDE9CC
:1010B0000075CDE9025669464046FFF713F9CDE9C0
:1010C000005469460E480294FFF70CF9CDE900750B
:1010D000CDE9025669464846FFF704F92802CDE9F2
:1010E0000005CDE9024669464846FFF7FBF805B022
:1010F000BDE8F0830010024000180140000C0140E0
:1011000000080140FEE7FFF7C5BB0907090E0028EC
:1011100006DA00F00F0000F1E02080F8141D70479F
:1011200000F1E02080F80014704770477047FFF727
:1011300003BA30B58FB028216846FFF71CF8142198
:101140000AA8FFF718F80920012100904FF4803019
:10115000002404910691CDE901040225CDE9075050
:101160004FF4E01009906846FFF7A0FB0F20CDE98F
:101170000A056802CDE90C400E9002210AA8FFF78B
:1011800077FAFFF72BFB0FB030BD00000D48016868
:1011900041F00101016041680B4A11404160016862
:1011A0000A4A11400160016821F480210160416810
:1011B00021F4FE0141604FF41F0181600449C00326
:1011C00008607047001002400000FFF8FFFFF6FEC5
:1011D00008ED00E00148FFF75ABD00001C000020A8
:1011E000F0B502681C4B1D4D1D4E1E4F1E4C4FF09E
:1011F000804C984209D0A04207D0604505D0A84253
:1012000003D0B04201D0B84204D122F0700E4A6837
:1012100042EA0E02984209D0A04207D0604505D0AC
:10122000A84203D0B04201D0B84203D122F44075A5
:10123000CA682A4322F080054A692A4302608A6804
:10124000C2620A688262984201D0A04201D1096953
:10125000016301214161F0BD002C01400004004008
:1012600000080040000C00400034014010B5406A06
:101270000021C185C184FFF7C1FD10BD0168CA68A6
:1012800022F49072CA6001684A6922F001024A6140
:10129000202180F83A10704710B590F83A102229B2
:1012A00001D0022010BD8168B1F5805F11D00169C5
:1012B000002901681FD0496801F07F03816A4A1C38
:1012C00082620B70C18D491E0904090CC18518D0BA
:1012D0002BE00269816A002A0268526805D0D2B206
:1012E0000A80816A491C8162ECE7C2F308020A8025
:1012F000816A891CF7E74A68816A4B1C83620A701D
:10130000E0E70168CA6822F02002CA600168CA6882
:1013100022F48072CA6001684A6922F001024A61BF
:10132000202180F83A10FFF77BFE002010BD00005E
:101330002DE9F041044600680169E26821F440515A
:10134000114301612169A06808436169084321686C
:10135000CA6841F20C639A430243CA60206841693B
:10136000A26921F44071114341614C492068642510
:10137000322688423CD1FFF747FA00EBC00101EB6F
:10138000001061688900B0FBF1F7FFF73DFA00EB50
:10139000C00101EB00106168B0468900B0FBF1F0BC
:1013A000B0FBF5F06FF01801484307EB800106EB46
:1013B0000110B0FBF5F000F0F006FFF725FA00EBA6
:1013C000C00101EB001061688900B0FBF1F0B0FBD7
:1013D000F5F006EB0016FFF717FA00EBC00101EB82
:1013E000001061688900B0FBF1F7FFF70DFA3BE0F0
:1013F000FFF7FAF900EBC00101EB0010616889000A
:10140000B0FBF1F7FFF7F0F900EBC00101EB0010C2
:101410006168B0468900B0FBF1F0B0FBF5F06FF009
:101420001801484307EB800106EB0110B0FBF5F013
:1014300000F0F006FFF7D8F900EBC00101EB001057
:1014400061688900B0FBF1F0B0FBF5F006EB001627
:10145000FFF7CAF900EBC00101EB001061688900D9
:10146000B0FBF1F7FFF7C0F900EBC00101EB001092
:1014700061688900B0FBF1F0B0FBF5F06FF0180186
:10148000484307EB800108EB0110B0FBF5F0216841
:1014900000F00F0030448860BDE8F0810038014062
:1014A00090F83910212901D0022070478168B1F5E8
:1014B000805F016A0BD04A1C0262026809785160A1
:1014C000C18C491E0904090CC1840ED017E009889B
:1014D0000268C1F30801516001690029016A02D064
:1014E000491C0162ECE7891CFBE70168CA6822F02D
:1014F0008002CA600068C16841F04001C1600020FC
:10150000704700000148FFF77BBC00005C00002032
:101510000148FFF775BC00009C000020FEE702E0D8
:1015200008C8121F08C1002AFAD17047704700206E
:1015300001E001C1121F002AFBD170471CB5FFF763
:1015400003F8FFF7F6FDFFF76FFD2D482B4901600B
:101550000621416040F6FF718160FEF7C3FF284815
:1015600028494C304FF4E13500240160C0E90154B2
:101570000C26C460C0E904468461C461FFF7C8FC5E
:101580001F4821498C300160C0E90154C460C0E9A2
:1015900004468461C461FFF7BBFC194800940C3019
:1015A0001A490194016040F28331C0E901144721D6
:1015B000C16080218161FFF739FB114800946946C1
:1015C0000C300194FFF70AFB002211462520FFF79B
:1015D0001BF82520FFF70CF8002211462620FFF704
:1015E00013F82620FFF704F8002211463620FFF7F3
:1015F0000BF83620FEF7FCFFFEE70000003000404D
:10160000100000200038014000440040001000405D
:1016100000000000000000000102030406070809A2
:10162000000000000102030448160008000000202A
:10163000100000001E1500085816000810000020B9
:10164000D00400002E15000800A24A04010000008A
:08165000100000000000000082
:0400000508000131BD
:00000001FF
