:020000040800F2
:10000000C005002045010008910F0008110E0008EE
:10001000750F0008D10100089D11000800000000C4
:10002000000000000000000000000000FB0F0008BE
:10003000DD01000800000000F90F0008FD0F0008B6
:100040005F0100085F0100085F0100085F01000810
:100050005F0100085F0100085F0100085F01000800
:100060005F0100085F0100085F0100085F010008F0
:100070005F0100085F0100085F0100085F010008E0
:100080005F0100085F0100085F0100085F010008D0
:100090005F0100085F0100085F0100085F010008C0
:1000A0005F0100085F0100085F0100085F010008B0
:1000B0005F0100085F0100085F0100085F010008A0
:1000C0005F0100085F0100085F0100085F01000890
:1000D0005F010008991100089B1100085F010008EA
:1000E0005F0100085F0100085F0100085F01000870
:1000F0005F0100085F0100085F0100085F01000860
:100100005F0100085F0100085F0100085F0100084F
:100110005F0100085F0100089D1000085F010008F2
:100120005F0100085F0100085F0100085F0100082F
:10013000DFF80CD000F03AF800480047CD12000874
:10014000C00500200648804706480047FEE7FEE756
:10015000FEE7FEE7FEE7FEE7FEE7FEE7FEE7FEE777
:100160005110000831010008202A04DB203A21FA4E
:1001700002F00021704721FA02F3D040C2F12002C0
:100180009140084319467047D2B201E000F8012BB4
:10019000491EFBD270470022F6E710B513460A4607
:1001A00004461946FFF7F0FF204610BD064C074DE8
:1001B00006E0E06840F0010394E807009847103437
:1001C000AC42F6D3FFF7B8FFEC1400080C1500089A
:1001D000014801F061F9FEE7D414000870470000FF
:1001E00055490022CA6155490A6842F002020A6074
:1001F0004860086840F04000086070472648016881
:10020000C90601D4002105E04B49CA6942F0020247
:10021000CA6110210268520706D5474A41F004011D
:10022000D36943F00103D3610269D20708D0424A7F
:10023000D36943F00403D361026922F00102026131
:1002400001607047F8B5144E044600F0CDF905463C
:10025000671C3068C00709D0002FFAD024B100F025
:10026000C3F9401BA042F4D9032012E03068800695
:1002700044BF202030603068C00607D43069C00712
:1002800004D13068400701D4002002E0FFF7B6FF38
:10029000012001B0F0BD00BF0C20024027480168DA
:1002A00041F0800101600020704700BF2DE9F84F48
:1002B000DFF88480814698F81800012801D10220D7
:1002C00037E001209A4693460E4688F818004CF213
:1002D0005030FFF7B7FF48BB4F46184CB9F1020F3B
:1002E0004FF0000518BF0427B9F1010F08BF4F46B2
:1002F0005FFA85F900204F4518D9C8F81C004FEA6D
:1003000009125146206840F0010020605846FFF76E
:100310002BFF26F819004CF25030FFF793FF2168AD
:100320000135002821F001012160E1D0002188F889
:10033000181001B0BDE8F08F90000020102002409E
:100340000648C16809065CBF002070470449016087
:1003500004490160C068C0F3C01070470420024027
:1003600023016745AB89EFCD2DE9F04F904A4FF05F
:1003700006094FF0000A4FF0010E4FF00F0800275A
:1003800090428C4A08BF4FF0050902444FEAB2235D
:10039000052B38BF4FEAB229874A944631FA07F253
:1003A00008BFBDE8F08F0EFA07F212EA01053FD050
:1003B00052460646B5F5807F28BF203A28BF04364E
:1003C000336808FA02F4A343042404FA02F2ACF5F9
:1003D0007E741A430AF00C033260BE0808FA03FB6D
:1003E00009FA03F3C268AA43C260624654F82620A1
:1003F00002EA0B029A421BD154F82630EA4323EA60
:100400000B0344F826306446DCF800301340CCF887
:100410000030DCF804301340CCF80430DCF808304D
:100420001340CCF80830654B1C461B681A4022600C
:100430000AF1040A0137B1E72DE9FC4F81465C4817
:1004400006234FF001084FF00F0E4FF0000A8145D0
:10045000584808BF052348444FEAB022052A38BF50
:100460004FEAB023009300220023102A08BFBDE802
:10047000FC8F0C6808FA02F73C4200F096804D6849
:10048000032D16D9112D26D0122D28D04C48854287
:1004900013D04C48854210D04B4885420DD04B4874
:1004A00085420AD04A48854207D04A48854204D04E
:1004B00022E0DFE805F002181B1F8C6844B1012C14
:1004C00014BFC9F81470C9F810704FF0080A13E08F
:1004D0004FF0040A10E0CC6804F1040A0CE0CC6888
:1004E00004F10C0A08E0D1F80CA005E0CC6804F196
:1004F000080A01E04FF0000A1C464846082A28BFB7
:10050000203C28BF043006680EFA04F50AFA04F409
:1005100026EA05052C430460C879C00645D55F4826
:10052000254E22F0030504460068B346354440F0EA
:1005300001002060206800F00100019003F00C0031
:10054000019E0EFA00F4244EB446AE5926EA040485
:10055000009E06FA00F0204345F80C004D68E803C1
:10056000DBF8000054BF20EA070440EA0704CBF898
:100570000040A803DBF8040054BF20EA070440EA67
:100580000704CBF80440E802DBF8080054BF20EA77
:10059000070440EA0704CBF80840A80207480446CD
:1005A000006854BFB84338432060043301325CE72D
:1005B000001C014000F8FEBF000401400C04014093
:1005C0000000111000001210000021100000221085
:1005D000000031100000321008FCFFFF002A08BFA5
:1005E000090401617047000005480068704700BFBA
:1005F0001A48034900780A6810440860704700BF31
:10060000B801002080B59F48016841F010010160E9
:10061000032000F07DF8002000F004F800F020F83E
:10062000002080BD70B50D4E04464FF47A713078CD
:10063000B1FBF0F0A2490968B1FBF0F000F0FCFA60
:1006400001250F2C08D838B94FF0FF302146002281
:10065000002500F03FF87460284670BD04000020BB
:10066000E0B50E48016841F001010160016801F048
:10067000010101910199416841F080514160406858
:1006800000F0805000900098052000F041F80448E8
:100690000222016862F31A6101608CBD18100240E9
:1006A0000400014000F01F010122400902FA01F19B
:1006B000014A42F82010704780E100E000F01F017D
:1006C0000122400902FA01F1014A42F82010704764
:1006D00000E100E080B5144B1B68C3F3022CBCF1B1
:1006E000030E8CF007034FF0FF3C38BF4FF0000EB5
:1006F000042B28BF04230CFA03F399430CFA0EF3DE
:1007000001FA0EF19A431143BDE8804000F050BC5D
:1007100005494FF6FF030A681A4060F30A220348AE
:1007200010430860704700BF0CED00E00000FA05C0
:10073000704700002DE9F8430D4652490446086809
:1007400000F00700A84209D2086820F007002843FB
:100750000860086800F00700A84253D12068684F7D
:100760008946810711D5410742BF396841F4E061EC
:100770003960010742BF396841F460513960396816
:10078000A26821F0F00111433960C00733D1D9F8D4
:10079000000000F00700A8420CD9D9F8000020F0B2
:1007A00007002843C9F80000D9F8000000F007004E
:1007B000A84227D12068410705D53968E26821F4AD
:1007C000E06111433960000706D53868216920F4DB
:1007D000605040EAC100386000F076F839682A4A73
:1007E0000024C1F30311515CC84035490860002062
:1007F000FFF718FF07E06068012808D157F8041CCC
:1008000089030DD40124204601B0BDE8F08357F8D8
:10081000041C022802D18901F4D501E08907F1D531
:10082000396821F0030108433860FFF7DDFE064612
:10083000606841F2883801280CD0022815D1386848
:1008400000F00C000828A2D0FFF7CEFE801B404528
:10085000F5D914E0386800F00C00042897D0FFF7B1
:10086000C3FE801B4045F5D909E0386810F00C0F35
:100870003FF48DAFFFF7B8FE801B4045F5D9032448
:10088000C1E700BF00200240BC140008014801215C
:10089000016070474C004242E5481949094A006826
:1008A0000968C1F30221515CC8407047E04814490F
:1008B000044A00680968C1F3C221515CC84070470E
:1008C0000C000020CC14000810B50D4C0D48226817
:1008D00002F00C03082B18BF10BDC2F383430AA11A
:1008E000CB5CD10302D40D48584310BD21680AA245
:1008F0005843C1F34041515CB0FBF1F010BD00BF63
:100900000410024000127A000203040506070809D9
:100910000A0B0C0D0E0F10100102000000093D0023
:1009200010B5054C2068000658BF10BDFFF700FF4A
:100930008020A07010BD00BF081002402DE9FC41CE
:1009400004460078B84EC00749D0706800F00C002B
:10095000042817D0706800F00C00082802D17068D5
:10096000C0030FD4606898B1B0F5803F06D03168FD
:10097000B0F5A02F20D141F480203060306840F4E1
:1009800080301FE03068800329D5606838BB07E1FC
:10099000306820F480303060306820F4802030608F
:1009A000FFF722FE05463068800318D5FFF71CFECE
:1009B000401B6428F7D9E2E021F4803030603068D1
:1009C00020F480203060FFF70FFE0546306880037A
:1009D00005D4FFF709FE401B6428F7D9CFE0207843
:1009E00080072BD5706810F00C0F07D0706800F0EE
:1009F0000C00082809D17068C00306D4306880074D
:100A000015D52069012812D0CAE02169874800293C
:100A10007CD001210160FFF7E7FD054630688007C3
:100A200005D4FFF7E1FD401B0228F7D9A7E03068A5
:100A3000616920F0F80040EAC100306020780007CA
:100A40002ED5A06978B179480121C0F88014FFF74C
:100A5000CBFD0546706A800715D4FFF7C5FD401B26
:100A60000228F7D98BE071480021C0F88014FFF705
:100A7000BBFD0546706A800712D5FFF7B5FD401B28
:100A80000228F7D97BE06A484FF4FA510068B0FBBE
:100A9000F1F0019000BF0198411E00280191F9D1A9
:100AA0002078400774D5F069C0000BD4F0694FF08E
:100AB000010840F08050F061F06900F08050009033
:100AC000009801E04FF000085A4F3868C0050FD475
:100AD000386840F480703860FFF786FD0546386856
:100AE000C00505D4FFF780FD401B6428F7D946E018
:100AF000E068D0B1012805D0316A05282BD141F03A
:100B000004003062306A40F001002AE000210160F8
:100B1000FFF76AFD0546306880077FF58FAFFFF766
:100B200063FD401B0228F6D929E0306A20F001005D
:100B30003062306A20F004003062FFF755FD054650
:100B400041F28837306A80071BD5FFF74DFD401B07
:100B5000B842F7D913E021F001003062306A20F08A
:100B600004003062FFF740FD054641F28837306AE5
:100B7000800706D4FFF738FD401BB842F7D90320A1
:100B80004FE0B8F1000F1EBFF06920F08050F06117
:100B9000E769002F44D0706800F00C00082801D1EC
:100BA00001203EE02149002088460866FFF71CFD31
:100BB0000546022F0AD147463068800110D5FFF75D
:100BC00013FD411B03200229F6D92AE03068800179
:100BD00026D5FFF709FD411B03200329F6D320E0AA
:100BE000206AB0F5803F05D17168A26821F4003118
:100BF000114371607168626A104321F474110843F3
:100C0000706001203866FFF7EFFC04463068800111
:100C100006D4FFF7E9FC011B03200229F6D900E006
:100C2000002002B0BDE8F081001002400000424206
:100C30000C00002000700040411E0020B0EB116F3E
:100C40001CBF01207047044AF023516003490B7018
:100C5000072190601160704710E000E023ED00E094
:100C600080B110B50446242084F83900204600F0F5
:100C700039F80020E06384F8390084F8380084F8FB
:100C80003A0010BD0120704750B310B5044690F8EB
:100C9000390028B9002084F83800204600F048F8D0
:100CA000242084F839002068C16821F40051C16013
:100CB000204600F0FFF92068016921F490410161AC
:100CC000416921F02A014161C16841F40051C160CC
:100CD00000202021E06384F8391084F83A1010BD18
:100CE0000120704780B50068A149884212D092491E
:100CF000884218BF80BD8348016821F480410160AB
:100D000081484FF4C061FFF72FFB2520BDE88040EC
:100D1000FFF7C8BC7B48416821F4003141607A4844
:100D20000C21FFF721FB2620BDE88040FFF7BABC6D
:100D300070B586B000268E49CDE90466CDE902661D
:100D40000068884233D07C4988425FD16D486E4C40
:100D500002AD016841F480410160016801F4804105
:100D600001910199016841F0040101602946006880
:100D700000F00400019001980320059002200390E8
:100D80004FF4007002902046FFF756FB00202946E2
:100D9000CDE903004FF4806002902046FFF74CFB42
:100DA000252000210022FFF795FC25202CE0554846
:100DB000554C02AD416841F400314160416801F495
:100DC000003101910199016841F004010160294657
:100DD000006800F0040001900198032005900220B3
:100DE0000390042002902046FFF726FB0820CDE95F
:100DF0000366294602902046FFF71EFB26200021AD
:100E00000022FFF767FC2620FFF758FC06B070BDF4
:100E100001A000F041FBFEE7486172644661756C19
:100E2000745F48616E646C65720D00002DE9F04FCF
:100E300085B04FF000093348334C00224FF02008B2
:100E4000CDF81090016804F5805741F04001016031
:100E5000016801F0400100910099016841F0100122
:100E60000160016801F0100100910099016841F0F2
:100E700004010160016801F004010091009901681A
:100E800041F0080101602021006800F00800009096
:100E900000983846FFF7A2FB04F580644FF4907188
:100EA00000222046FFF79AFB0DF1040B1C20DFF80F
:100EB0005CA0CDE90299019038465946D0470225F9
:100EC000012638465946CDE90355CDE90186D0477C
:100ED0000D485946CDF80C90CDE90169D047204620
:100EE0005946CDE90355CDE90186D0474FF48070CE
:100EF0000495CDE90269594601902046D04705B0D6
:100F0000BDE8F08F181002400008014039040008C5
:100F100010B5ED489D4C4FF4E13300210C22C0E99F
:100F20000043C0E90211C0E90412C0E90611BDE89E
:100F30001040FFF7A9BE00BF0038014010B50B4CB0
:100F40000B4B4FF4E13200200C21C4E90032C4E91C
:100F50000200C4E90401C4E906002046FFF794FE3C
:100F60002068C16841F02001C16010BD5000002020
:100F70000044004001A000F08FFAFEE74D656D4D82
:100F8000616E6167655F48616E646C65720D00003B
:100F900080B503A000F080FABDE88040FFF7C0BC38
:100FA0004E4D495F48616E646C65720D0000000033
:100FB00010B5064A00F00F030028054C02444FEA22
:100FC0000110B8BF1A19107010BD00BF00E400E096
:100FD00014ED00E00648BFF34F8F064A016801F4A4
:100FE000E06111430160BFF34F8F00BFFDE700BF19
:100FF0000CED00E00400FA0570477047FFF7F8BAFF
:10100000B0B590B000244FF4E010022501210B94FC
:10101000CDE909440F904FF480300E900D950C915E
:101020000A91CDE907040920069006A8FFF786FC7F
:101030004FF480600221CDE904000F20CDE9025475
:10104000019001A8FFF776FBFFF720FC10B0B0BDC0
:101050000E480F4A016841F00101016041681140EA
:101060000C4A4160016811400160016821F480214F
:101070000160416821F4FE0141604FF41F0181606D
:1010800005484FF000610160704700BF001002404A
:101090000000FFF8FFFFF6FE08ED00E004480168DD
:1010A000C9071EBF016821F001010160704700BF40
:1010B000101000402DE9F0470446006841F20C662C
:1010C0000169E26821F4405111430161A168D4E94A
:1010D0000423C7681143B74319433943C1604169C9
:1010E000A26921F44071114341612849884214BF2B
:1010F000DFF89CA0DFF89CA0D047D4F8049080468D
:10110000D04767680646D04761681925BF00684325
:1011100006FB05F38900B3FBF7F3B0FBF1F06421A4
:10112000B0FBF1F202FB1102181A4FEA89031044D6
:10113000322202EB001008FB05F2B0FBF1F0B2FB2B
:10114000F3F200F0F000B2FBF1F100EB0116D04732
:10115000616868438900B0FBF1F7D0476168684374
:1011600064228900B0FBF1F0B0FBF2F3391A03FB03
:1011700012000844322101EB00102168B0FBF2F0AC
:1011800000F00F0030438860BDE8F0870038014070
:1011900099080008AD08000870477047014800F042
:1011A0007BF9FEE7D414000810B5FFF72BFAFFF720
:1011B00027FFFFF73BFEFFF7ABFEFFF7BFFEFFF792
:1011C000BFF8A64C4FF48271201DFEF7E4FFA4483F
:1011D000206010BDF8B50D460446FFF705FA544FE0
:1011E0000646FFF701FA801BA84208D2386800685B
:1011F0008006F6D54D4800682070012000E00020F0
:1012000001B0F0BDB0B54FF4FA610446FFF7E2FF5C
:1012100070B100252178E8B2043181420AD9204416
:101220004FF4FA610130FFF7D5FF01350028F1D105
:101230000120B0BD0021002202E0E35C013219442C
:10124000D3B28342F9D9C8B2002818BF01204000A8
:10125000B0BD000010B50F4C0F4920680840B0F138
:10126000005F0ED113A000F065F8FFF717F83048C3
:10127000FFF7F6FC6068216881F30888BDE810403C
:10128000004706A000F056F8012080F31388FFF70E
:10129000A1FE00BF003000080000FE2F617070202A
:1012A000697320656D707479207265626F6F742147
:1012B000200D0A006A756D7020746F206170702EA9
:1012C0002E2E0D0A000000001000002080B5FFF750
:1012D0006BFF00F039F8012080BDBCB5FFF784F941
:1012E00004460DF10705FFF77FF9001B00097C2874
:1012F00011D8552000F012F82846C821FFF76AFFE0
:101300000028F0D09DF807004228ECD1522000F0D0
:1013100005F8012000E0002002B0B0BD03490860DC
:101320000348006801680906FCD57047043801408D
:101330001000002010B5044602E0FFF7EFFF013473
:1013400020780028F9D110BDFFF7C7FF08B9FFF7D3
:1013500081FF1B4FDFF86C800025BC1D06E0204696
:10136000FFF750FF4046FFF7E5FF0135022DF6D3AA
:10137000012615A519E0787A04280CD0012804D09C
:1013800068B900F023F8064609E04046FFF7D2FFAF
:10139000FFF760FF03E0788900BA000CB880F0071F
:1013A000284618BF4046FFF7C5FF2046FFF72AFF33
:1013B0000028E0D0012080F31388FFF70BFE00BF68
:1013C000B0000020E8140008460A00002DE9F041B2
:1013D000DFF8888098F8071098F80820B8F804001B
:1013E00042EA012141EA00461D48864201D200241A
:1013F00030E0D8F800001B4C0FE0FEF7F1FE4CF295
:101400005030FEF71FFF206820F002002060D8F85F
:10141000000000F50060C8F8000098F80610721887
:101420009042EAD308F10A07002000240DE03A8830
:10143000A91901200023FEF739FF3888A95B8842EB
:1014400008D198F80610A81C0237C5B2C8B2854268
:10145000EDD301242046BDE8F08100BFB00000209C
:10146000003000081020024002E008C8121F08C126
:10147000002AFAD170477047002001E001C1121F15
:10148000002AFBD1704738B504468DF80000694644
:101490000320ABBE204638BD10B5044601E0FFF77F
:1014A000F2FF14F8010B04490028F8D1BDE8104000
:1014B0000A20FFF7E8BF0000000000200000000045
:1014C00000000000010203040607080900000000F4
:1014D0000102030455736167654661756C745F486A
:1014E000616E646C65720D00530A000010150008EF
:1014F00000000020100000006814000820150008FB
:1015000010000020B0050000781400080000000062
:1015100000000000010000001000000000A24A04CA
:0400000508000131BD
:00000001FF
