:020000040800F2
:100000003008002045010008C1100008010F000859
:10001000A510000879020008E513000800000000A0
:1000200000000000000000000000000007110008B0
:1000300085020008000000000511000809110008F1
:100040005F0100085F0100085F0100085F01000810
:100050005F0100085F0100085F0100085F01000800
:100060005F0100085F0100085F0100085F010008F0
:100070005F0100085F0100085F0100085F010008E0
:100080005F0100085F0100085F0100085F010008D0
:100090005F0100085F0100085F0100085F010008C0
:1000A0005F0100085F0100085F0100085F010008B0
:1000B0005F0100085F0100085F0100085F010008A0
:1000C0005F0100085F0100085F0100085F01000890
:1000D0005F010008C1130008CD1300085F0100088C
:1000E0005F0100085F0100085F0100085F01000870
:1000F0005F0100085F0100085F0100085F01000860
:100100005F0100085F0100085F0100085F0100084F
:100110005F0100085F010008A91100085F010008E5
:100120005F0100085F0100085F0100085F0100082F
:10013000DFF80CD000F07EF8004800479514000866
:10014000300800200648804706480047FEE7FEE7E3
:10015000FEE7FEE7FEE7FEE7FEE7FEE7FEE7FEE777
:100160005D11000831010008202A04DB203A21FA41
:1001700002F00021704721FA02F3D040C2F12002C0
:1001800091400843194670470649074A086850439A
:1001900043F2390210440860400870470149086082
:1001A00070470000000000206D4EC641D2B201E051
:1001B00000F8012B491EFBD270470022F6E710B56C
:1001C00013460A4604461946FFF7F0FF204610BDC5
:1001D0002DE9F05F0546002092469B46884606467C
:1001E000814640241BE02846414647462246FFF709
:1001F000BBFF53465A46C01A914110D311461846C8
:10020000224600F029F82D1A67EB01084F462246D6
:100210000120002100F020F817EB00094E41201EBC
:10022000A4F10104DFDC484631462A464346BDE8D6
:10023000F09F0000064C074D06E0E06840F0010327
:1002400094E8070098471034AC42F6D3FFF774FFE8
:10025000641E0008841E0008202A04DB203A00FAED
:1002600002F1002070479140C2F1200320FA03F30D
:100270001943904070470000014801F0B1FDFEE7CE
:10028000341E00087047000090F82110022919D18F
:100290000268116821F00E011160116821F001015E
:1002A00011602B4901F17C039A420FD9304B9A42DD
:1002B00024D0304B9A4223D02F4B9A4222D14FF474
:1002C000807327E00421816301207047214B9A420B
:1002D00026D0214B9A4225D0204B9A4224D0204B45
:1002E0009A4224D01F4B9A4217D01F4B9A4221D0DA
:1002F0001E4B9A4211D14FF080721DE0012309E09C
:10030000102307E001F5886C4FF48033624508BF85
:100310004FF48053C1F800340FE04FF480320BE00B
:10032000012209E0102207E04FF4807204E04FF44C
:10033000805201E04FF480120A604FF48071018412
:10034000416B19B180B58847002080BD00207047FF
:1003500004000240080002401C000240300002403D
:1003600044000240580002406C00024080000240FD
:10037000080402401C040240300402402DE9FC4FF6
:1003800081465C4806234FF001084FF00F0E4FF0F6
:10039000000A8145584808BF052348444FEAB02267
:1003A000052A38BF4FEAB023009300220023102A09
:1003B00008BFBDE8FC8F0C6808FA02F73C4200F069
:1003C00096804D68032D16D9112D26D0122D28D0D8
:1003D0004C48854213D04C48854210D04B4885424A
:1003E0000DD04B4885420AD04A48854207D04A483A
:1003F000854204D022E0DFE805F002181B1F8C685C
:1004000044B1012C14BFC9F81470C9F810704FF032
:10041000080A13E04FF0040A10E0CC6804F1040A63
:100420000CE0CC6804F10C0A08E0D1F80CA005E05F
:10043000CC6804F1080A01E04FF0000A1C46484667
:10044000082A28BF203C28BF043006680EFA04F5AD
:100450000AFA04F426EA05052C430460C879C006AC
:1004600045D55F48254E22F0030504460068B34693
:10047000354440F001002060206800F00100019048
:1004800003F00C00019E0EFA00F4244EB446AE595F
:1004900026EA0404009E06FA00F0204345F80C000A
:1004A0004D68E803DBF8000054BF20EA070440EA87
:1004B0000704CBF80040A803DBF8040054BF20EA8F
:1004C000070440EA0704CBF80440E802DBF8080020
:1004D00054BF20EA070440EA0704CBF80840A8020A
:1004E00007480446006854BFB843384320600433CB
:1004F00001325CE7001C014000F8FEBF000401402F
:100500000C04014000001110000012100000211026
:1005100000002210000031100000321008FCFFFF24
:10052000002A08BF090401617047000005480068FF
:10053000704700BF1A48034900780A6810440860F1
:10054000704700BF2804002080B59948016841F039
:1005500010010160032000F071F8002000F004F8A1
:1005600000F020F8002080BD70B50D4E04464FF419
:100570007A713078B1FBF0F09C490968B1FBF0F07A
:1005800000F0F0FA01250F2C08D838B94FF0FF30F1
:1005900021460022002500F033F87460284670BD23
:1005A00004000020E0B50E48016841F0010101603F
:1005B000016801F0010101910199416841F0805108
:1005C0004160406800F0805000900098052000F0E5
:1005D00035F804480222016862F31A6101608CBD9B
:1005E000181002400400014000F01F0101224009E0
:1005F00002FA01F1014A42F82010704700E100E0E0
:1006000080B5144B1B68C3F3022CBCF1030E8CF0B5
:1006100007034FF0FF3C38BF4FF0000E042B28BFFC
:1006200004230CFA03F399430CFA0EF301FA0EF1CA
:100630009A431143BDE8804000F052BD05494FF692
:10064000FF030A681A4060F30A2203481043086057
:10065000704700BF0CED00E00000FA057047000095
:100660002DE9F8430D4652490446086800F007009A
:10067000A84209D2086820F00700284308600868EB
:1006800000F00700A84253D12068684F89468107CF
:1006900011D5410742BF396841F4E0613960010773
:1006A00042BF396841F4605139603968A26821F06D
:1006B000F00111433960C00733D1D9F8000000F0D0
:1006C0000700A8420CD9D9F8000020F00700284301
:1006D000C9F80000D9F8000000F00700A84227D1AF
:1006E0002068410705D53968E26821F4E0611143CB
:1006F0003960000706D53868216920F4605040EA67
:10070000C100386000F076F839682A4A0024C1F345
:100710000311515CC840354908600020FFF724FFF1
:1007200007E06068012808D157F8041C89030DD43C
:100730000124204601B0BDE8F08357F8041C0228CC
:1007400002D18901F4D501E08907F1D5396821F09A
:10075000030108433860FFF7E9FE0646606841F28E
:10076000883801280CD0022815D1386800F00C0018
:100770000828A2D0FFF7DAFE801B4045F5D914E027
:10078000386800F00C00042897D0FFF7CFFE801BDC
:100790004045F5D909E0386810F00C0F3FF48DAFF3
:1007A000FFF7C4FE801B4045F5D90324C1E700BF15
:1007B00000200240041E000801480121016070472A
:1007C0004C004242E5481949094A00680968C1F3EA
:1007D0000221515CC8407047E0481449044A00684F
:1007E0000968C1F3C221515CC84070470C00002069
:1007F000141E000810B50D4C0D48226802F00C03C1
:10080000082B18BF10BDC2F383430AA1CB5CD103F0
:1008100002D40D48584310BD21680AA25843C1F3C1
:100820004041515CB0FBF1F010BD00BF041002402C
:1008300000127A0002030405060708090A0B0C0DD2
:100840000E0F10100102000000093D0010B5054C0C
:100850002068000658BF10BDFFF700FF8020A07081
:1008600010BD00BF081002402DE9FC41044600788D
:10087000B84EC00749D0706800F00C00042817D0AB
:10088000706800F00C00082802D17068C0030FD413
:10089000606898B1B0F5803F06D03168B0F5A02F00
:1008A00020D141F480203060306840F480301FE077
:1008B0003068800329D5606838BB07E1306820F4D0
:1008C00080303060306820F480203060FFF72EFEEA
:1008D00005463068800318D5FFF728FE401B6428C2
:1008E000F7D9E2E021F480303060306820F48020D5
:1008F0003060FFF71BFE05463068800305D4FFF724
:1009000015FE401B6428F7D9CFE0207880072BD54F
:10091000706810F00C0F07D0706800F00C00082809
:1009200009D17068C00306D43068800715D52069E6
:10093000012812D0CAE02169874800297CD0012112
:100940000160FFF7F3FD05463068800705D4FFF727
:10095000EDFD401B0228F7D9A7E03068616920F05F
:10096000F80040EAC1003060207800072ED5A06969
:1009700078B179480121C0F88014FFF7D7FD05460A
:10098000706A800715D4FFF7D1FD401B0228F7D904
:100990008BE071480021C0F88014FFF7C7FD0546C1
:1009A000706A800712D5FFF7C1FD401B0228F7D9F6
:1009B0007BE06A484FF4FA510068B0FBF1F0019017
:1009C00000BF0198411E00280191F9D1207840070D
:1009D00074D5F069C0000BD4F0694FF0010840F005
:1009E0008050F061F06900F080500090009801E0C4
:1009F0004FF000085A4F3868C0050FD4386840F4EB
:100A000080703860FFF792FD05463868C00505D450
:100A1000FFF78CFD401B6428F7D946E0E068D0B1B1
:100A2000012805D0316A05282BD141F0040030623D
:100A3000306A40F001002AE000210160FFF776FDF6
:100A40000546306880077FF58FAFFFF76FFD401BCD
:100A50000228F6D929E0306A20F001003062306ABD
:100A600020F004003062FFF761FD054641F288374F
:100A7000306A80071BD5FFF759FD401BB842F7D9F4
:100A800013E021F001003062306A20F0040030628F
:100A9000FFF74CFD054641F28837306A800706D4DF
:100AA000FFF744FD401BB842F7D903204FE0B8F1EF
:100AB000000F1EBFF06920F08050F061E769002F41
:100AC00044D0706800F00C00082801D101203EE0FD
:100AD0002149002088460866FFF728FD0546022FB9
:100AE0000AD147463068800110D5FFF71FFD411B32
:100AF00003200229F6D92AE03068800126D5FFF7C5
:100B000015FD411B03200329F6D320E0206AB0F530
:100B1000803F05D17168A26821F4003111437160F2
:100B20007168626A104321F47411084370600120F7
:100B30003866FFF7FBFC04463068800106D4FFF7F7
:100B4000F5FC011B03200229F6D900E0002002B0C9
:100B5000BDE8F08100100240000042420C0000207D
:100B600000700040411E0020B0EB116F1CBF01203F
:100B70007047044AF023516003490B7007219060CD
:100B80001160704710E000E023ED00E090F83C3089
:100B90000222012B1AD080F83D200268536823F00E
:100BA00070035360D1F800C0536843EA0C035360EC
:100BB000936823F0800393604968936819439160B8
:100BC0000022012180F83C2080F83D10104670473B
:100BD000B0B110B5044690F83D0028B9002084F863
:100BE0003C00204600F00EF80220211D84F83D0054
:100BF000206800F0E9FA012084F83D00002010BDD3
:100C00000120704700680C49884218BF7047E0B562
:100C10000A480022016841F01001016000210068CB
:100C200000F01000019001983620FFF7E9FC362013
:100C3000BDE88C40FFF7D8BC001000401C100240FB
:100C40000068C16841F00101C160016841F0010123
:100C5000016000207047704710B5D0F800E00446EE
:100C6000DEF80010DEF80C20DEF814305FEA017CBC
:100C700050D002F4907003F00103C01852D0C8079E
:100C80001FBF12F48070E06B40F00100E063480782
:100C900004D51BB1E06B40F00200E063880704D587
:100CA0001BB1E06B40F00400E063BCF1000F04D521
:100CB0001BB1E06B40F00800E063E06B00286ED0F1
:100CC00002EA0100800604D5204600F0CAFAD4F8F2
:100CD00000E0DEF81400E16B00F0400001F00801D4
:100CE00040184CD0204600F0AFFA20684169490610
:100CF00040D5416921F040014161606BD0B32F497B
:100D00004163FFF7C1FA002849D0606B416BBDE831
:100D10001040084711408A0605D52046BDE810401E
:100D200000F09FBA114008060FD4480637D5DEF808
:100D30000C0020F04000CEF80C00202084F8390090
:100D40002046BDE8104000F0DAB894F839002128B8
:100D500025D1A068216AB0F5805F16D108886FF3AD
:100D60005F20CEF804002069002814BF481C881CAE
:100D700020620FE02046BDE81040FFF76CBF204620
:100D8000FFF769FF0020E06310BD481C206208786F
:100D9000CEF80400E08C0138E084000400D010BDDF
:100DA000DEF80C0020F08000CEF80C00DEF80C001D
:100DB00040F04000CEF80C0010BD00BF3D1200080E
:100DC00050B310B5044690F8390028B9002084F8D3
:100DD0003800204600F022F8242084F839002068EA
:100DE000C16821F40051C160204600F077FA206804
:100DF000016921F490410161416921F02A014161B9
:100E0000C16841F40051C16000202021E06384F8F2
:100E1000391084F83A1010BD0120704770B586B0C3
:100E200000269F49CDE90466CDE902660068884244
:100E300033D08E4988425FD16E486F4C02AD016855
:100E400041F480410160016801F480410191019900
:100E5000016841F0040101602946006800F00400C7
:100E60000190019803200590022003904FF4007038
:100E700002902046FFF782FA00202946CDE90300C0
:100E80004FF4806002902046FFF778FA2520002179
:100E90000022FFF7B5FB25202CE05648564C02AD4A
:100EA000416841F400314160416801F40031019131
:100EB0000199016841F0040101602946006800F0D1
:100EC0000400019001980320059002200390042063
:100ED00002902046FFF752FA0820CDE90366294622
:100EE00002902046FFF74AFA262000210022FFF751
:100EF00087FB2620FFF778FB06B070BD7047704770
:100F000001A000F06DFFFEE7486172644661756CF8
:100F1000745F48616E646C65720D00002DE9F04FDE
:100F200085B04FF000093348334C00224FF02008C1
:100F3000CDF81090016804F5805741F04001016040
:100F4000016801F0400100910099016841F0100131
:100F50000160016801F0100100910099016841F001
:100F600004010160016801F0040100910099016829
:100F700041F0080101602021006800F008000090A5
:100F800000983846FFF7CCFA04F580644FF490716E
:100F900000222046FFF7C4FA0DF1040B1C20DFF8F5
:100FA0005CA0CDE90299019038465946D047022508
:100FB000012638465946CDE90355CDE90186D0478B
:100FC0000D485946CDF80C90CDE90169D04720462F
:100FD0005946CDE90355CDE90186D0474FF48070DD
:100FE0000495CDE90269594601902046D04705B0E5
:100FF000BDE8F08F18100240000801407D03000892
:101000001CB50C4C80200C4B002140F2E732A06153
:101010004720C4E90032C4E902102046CDE900119E
:10102000FFF7D6FD69462046FFF7B0FD2046FFF7E3
:1010300007FE1CBD6C0000200010004010B5E24C03
:10104000DC4B4FF4E13200200C21C4E90032C4E94A
:101050000200C4E90401C4E906002046FFF7B0FE1F
:101060002068C16841F02001C16010BD0038014016
:1010700010B5DA4C0A4B4FF4E13200200C21C4E9E0
:101080000032C4E90200C4E90401C4E906002046B4
:10109000FFF796FE2068C16841F02001C16010BDD5
:1010A0000044004001A000F09BFEFEE74D656D4D41
:1010B000616E6167655F48616E646C65720D00000A
:1010C00080B503A000F08CFEBDE88040FFF7BEBBFA
:1010D0004E4D495F48616E646C65720D0000000002
:1010E00010B5064A00F00F030028054C02444FEAF1
:1010F0000110B8BF1A19107010BD00BF00E400E065
:1011000014ED00E070477047FFF714BAB0B590B027
:1011100000244FF4E010022501210B94CDE909448D
:101120000F904FF480300E900D950C910A91CDE9FF
:1011300007040920069006A8FFF796FB4FF480608D
:101140000221CDE904000F20CDE90254019001A84D
:10115000FFF786FAFFF730FB10B0B0BD0E480F4A1C
:10116000016841F001010160416811400C4A416091
:10117000016811400160016821F48021016041682B
:1011800021F4FE0141604FF41F01816005484FF0DA
:1011900000610160704700BF001002400000FFF8CE
:1011A000FFFFF6FE08ED00E010B5064C2068C00712
:1011B00008BF10BD00F0EAF9206820F001002060AF
:1011C00010BD00BF101000400268B0F1804F0ED07B
:1011D000154B98420BD0154B984208D0144B9842AF
:1011E00005D0144B984202D0134B984208D14B685B
:1011F00022F45C7CCA6823F4407343EA0C031A436C
:101200004B6922F080021A4302608A68C2620A684F
:101210008262084A904202D0074A904201D109698D
:101220000163012141617047000400400008004053
:10123000000C004000340140002C0140406A0021B5
:10124000C185C184FFF707BD0168CA6822F49072A6
:10125000CA604A6922F001024A61202180F83A10EE
:10126000704790F83A10222918BF70478168B1F58D
:10127000805F08D102680369816A526883B1D2B283
:1012800021F8012B10E0026901684968002A826A8E
:1012900002F10103836218BF01F07F01117004E0C5
:1012A0006FF35F2221F8022B8162C18D0139C18564
:1012B000090400D070470168CA6822F02002CA60A1
:1012C000CA6822F48072CA604A6922F001024A6147
:1012D000202180F83A10FFF711BE00002DE9F047F9
:1012E0000446006841F20C660169E26821F440514D
:1012F00011430161A168D4E90423C7681143B743CE
:1013000019433943C1604169A26921F44071114315
:1013100041619149884214BFDFF89CA0DFF89CA08E
:10132000D047D4F804908046D04767680646D04737
:1013300061681925BF00684306FB05F38900B3FB0C
:10134000F7F3B0FBF1F06421B0FBF1F202FB110204
:10135000181A4FEA89031044322202EB001008FBEE
:1013600005F2B0FBF1F0B2FBF3F200F0F000B2FBDB
:10137000F1F100EB0116D047616868438900B0FBCA
:10138000F1F7D0476168684364228900B0FBF1F04F
:10139000B0FBF2F3391A03FB12000844322101EBCF
:1013A00000102168B0FBF2F000F00F0030438860BD
:1013B000BDE8F08700380140C5070008D9070008DC
:1013C0000148FFF749BC00BFAC00002080B50348CE
:1013D000FFF742FC0248006880BD00BFEC0000201F
:1013E00004440040014800F0FBFCFEE7341E000806
:1013F00000F0AAB869484068704700BF6748008895
:10140000704700BF064A52F820C0064A32F8203022
:10141000054810F8212060461946FFF781B800BF43
:10142000241E00081C1E00082C1E0008002001219C
:10143000FFF7E8BFF8B5FFF7F9FF0448019011483E
:10144000CDF80A0001A800F0CFF98FBD2D140008D7
:1014500000200021FFF7D6BF1FB5FFF7F9FF0948AD
:1014600001ACCDF80A0008480190204600F0BCF914
:101470000648CDF80A0006480190204600F0B4F96D
:101480001FBD00BF6400F0015114000832000101CB
:101490003514000884B000F047F800F06DF8002023
:1014A00001210124FFF7AEFF01200121FFF7AAFF70
:1014B000FFF7D2FF14A000F093FCFFF79BFFFEF7AD
:1014C0006DFE17488DF80C4016A4642601AD0190FE
:1014D00000F010F9A8B120270EE0FEF755FE90FBB2
:1014E000F6F101FB16008DF80D00C0B2ADF80A0050
:1014F000284600F079F9013F002FEED1204600F098
:101500006FFC00F09FF9E3E773797374656D2072E7
:1015100065626F6F742073756363657373200D006C
:10152000871500080D00000080B5FFF70DF8FFF7E4
:10153000EDFDFFF7F3FCFFF781FDFFF799FDBDE837
:101540008040FFF75DBD000003490A685206FCD5E4
:10155000C2B24A60704700BF0038014010B5054C68
:101560004FF496712046FEF728FE202084F82A01C9
:1015700010BD00BF2C01002080B500F0C3F8BDE80D
:101580008040FFF7EBBF202000F024BC03484168F7
:101590000131416001880131018070471000002055
:1015A0002DE9F843414E054696F8CD01202873D227
:1015B00096F8CE4196F8CC718846FFF71FFFB8F138
:1015C000200F03D01EE0791C01F01F07F9B272183A
:1015D00092F88C31002BF6D102F5C67CD5E90032A9
:1015E000AD6801EB4101B84646F8213006EB8101B8
:1015F000C1E9012501218CF80010791C01F01F01BF
:1016000086F8CC115FFA88F106F5E77C01EB410121
:1016100006EB8109A9F8040096F8CDE1BEF1000FB0
:1016200030D02746A6F8840102E0A97A3C460F464E
:1016300007EB470206EB8205AA88EB88821A91B273
:101640008B42F2D9B9F806500DE007EB47013C4652
:1016500006EB8101897A01EB41020F4606EB82031A
:101660009A88DB88821A991A89B28D42EDD296F84F
:10167000CE01B8421EBF04EB440006EB800000F12F
:101680000A0C3C460EF101008CF8008089F80A40F3
:1016900086F8CD01BDE8F883694B05A00EA1742240
:1016A00001B0BDE8F04300F043B900BF580200208C
:1016B0004572726F722022257322206661696C6503
:1016C00064206174206C696E6520256420696E2039
:1016D00025730D0A0000000074696D657220746145
:1016E000736B206D656D65726F7920697320667507
:1016F0006C6C00008B4890F8CD01B0FA80F0400986
:10170000704700BF10B5874C4FF4E8712046FEF7D4
:1017100054FDFF21044884F88911202184F8CE115A
:101720000021C4E9601010BD0000FFFF2DE9F84F53
:10173000174890F8CD1190F8CE5116A000F0F8F8A7
:101740001F4C4FF6FF7A0FF270090FF2780B20A6AC
:1017500022A7E8B20E4900EB400001EB80084546A5
:1017600035F8060F504508BFBDE8F88F98F8091006
:101770004846A04798F808105846A04729883046A0
:10178000A047B8F804103846A04798F80A50E0E798
:10179000580200200D0A2D2D2D2D74696D657220C3
:1017A0007461736B206C6973742073697A6520258A
:1017B00075202D2D2D0D0A0049443A253275200043
:1017C000311900087265706561743A253275200020
:1017D000706572696F643A25327520007469636BB5
:1017E0003A253275200D0A0010B12021FFF7D8BE2E
:1017F00080B5134B03A00EA1BA2200F099F8BDE802
:101800008040FEE7417373657274696F6E20222514
:101810007322206661696C6564206174206C696E56
:101820006520256420696E2025730D0A00000000E4
:10183000706F696E746572206973206E756C6C00D0
:10184000481E00082DE9F04F89B0364F0DF104090C
:101850002021484697F8CE41FEF7AFFCFFF7CEFDBA
:10186000054697F8CD01002858D04FF0000B0FF235
:10187000B80A0026A7F884512BE057F8200038B1A9
:1018800098F80910504600F053F8D8F80000804747
:1018900098F80800013888F80800000604D0F0B273
:1018A000013609F800400DE098F8090020212028B1
:1018B00028BF0846384480F8ACB19DF8040038448D
:1018C00080F88CB197F8CD01013887F8CD0198F8F0
:1018D0000A40E0B200EB400007EB8008B8F80420B3
:1018E000B8F80610AA1A92B28A42C6D887F8CE4132
:1018F000F4B201AD10E015F8011B01EB410007EB5C
:101900008000027AFE2A08BF013202720020FFF72F
:1019100047FEFFF70BFF013C002CECD109B0BDE8FE
:10192000F08F00BF58020020253032750000000003
:101930000FB4054B10B503A9044A029800F018F83B
:1019400010BC5DF814FB0000F11300081800002023
:1019500002E008C8121F08C1002AFAD17047704778
:10196000002001E001C1121F002AFBD170470000D6
:101970002DE9FF4F8DB00F460546002606E02528CD
:101980000BD0DDE90F1290476D1C761C28780028DB
:10199000F5D111B03046BDE8F08F0024A246A14633
:1019A0000122EC4900E0044315F8013F203B02FA14
:1019B00003F00842F7D128782A2810D06FF02F02C0
:1019C0002878A0F13001092914D80AEB8A0102EB2A
:1019D000410144F0020400EB010A6D1CF0E701CF65
:1019E0005FEA000A03D544F40054CAF1000A44F047
:1019F00002046D1C28782E2817D115F8010F44F029
:101A000004042A280ED06FF02F022878A0F13001AC
:101A100009290AD809EB890102EB410100EB010910
:101A20006D1CF2E757F8049B6D1C28786C280FD0CA
:101A300006DC4C2817D068280DD06A2814D104E0A1
:101A4000742810D07A280FD10DE044F400140AE075
:101A500044F4801401E044F440146978814202D1D6
:101A600004F580146D1C6D1C2A786E2A1FD00CDCC6
:101A7000632A31D004DC002A8BD0582A11D1A3E08C
:101A8000642A68D0692A0CD165E0732A2ED004DC60
:101A90006F2A73D0702A04D19BE0752A6FD0782A00
:101AA0006ED01046DDE90F129047761C50E1C4F36A
:101AB0000250022806D0032809D0042801CF09D0FB
:101AC000066045E101CFF117C0E9006140E101CFB7
:101AD00006803DE106703BE117F8040B8DF800002D
:101AE00000208DF80100EB46012003E057F804BB0D
:101AF0004FF0FF3061074FF0000102D40DE008F114
:101B00000101884649450FDA8045F8DB1BF80810CB
:101B10000029F4D108E008F1010188468142FADB8E
:101B20001BF808100029F6D1DDE90F23AAEB080005
:101B30008146214600F036F9304400EB080604E007
:101B4000DDE90F121BF8010B9047B8F10108F7D23D
:101B500021464846F7E00A21C4F302534FF0000B38
:101B60000891022B04D001CFC117032B09D00AE042
:101B7000FF1D27F00707F7E8020108E032E01FE049
:101B800020E000B2C117042B01D140B2C117031EDF
:101B900071F1000307DA4FF0000CD0EB0C006CEB96
:101BA00001012D2302E0230504D52B238DF82430D9
:101BB000012303E0E30701D02023F7E7984658E02C
:101BC0000A2110E010210EE010204FF0000B0890C9
:101BD0000CE010214FF0000B44F004044FF0080912
:101BE000089103E008214FF0000B0891C4F3025361
:101BF000022B04D001CF0021032B06D006E0FF1DED
:101C000027F00707F7E8020103E080B2042B00D1B8
:101C1000C0B24FF0000823072BD5702A07D0DDF89B
:101C200020C08CF0100C5CEA0B0C05D00EE04023B9
:101C30008DF82430012308E050EA010306D0302358
:101C40008DF824308DF8252002239846DDF820C039
:101C50008CF0080C5CEA0B0C0BD150EA010301D1AB
:101C6000630706D530238DF824304FF00108A9F121
:101C70000109582A04D038A20B9208AA0A920BE054
:101C80003AA2F9E75B46089AFEF7A2FA0B9B9B5C27
:101C90000A9A521E0A92137050EA0102F2D10A986F
:101CA000ADEB000000F1200B600702D524F4803476
:101CB00001E04FF00109D94502DDA9EB0B0000E07E
:101CC000002000EB0B0141440890AAEB010AE0035D
:101CD00006D4DDE90F232146504600F063F80644A0
:101CE0004FF0000908E009A911F80900DDE90F1219
:101CF000904709F10109761CC145F4DBE0030CD5DE
:101D0000DDE90F232146504600F04CF8064404E07C
:101D1000DDE90F1230209047761C0899481E089084
:101D20000029F5DC08E00A980A990078491C0A9114
:101D3000DDE90F129047761CBBF10001ABF1010BFE
:101D4000F1DC21465046DDE90F2300F019F8064486
:101D50006D1C1BE60928010030313233343536372B
:101D600038396162636465660000000030313233E7
:101D70003435363738394142434445460000000087
:101D80002DE9F041044600251E461746880404D478
:101D900005E039462020B0476D1C641EF9D5284661
:101DA000BDE8F0812DE9F041044600251E4690462D
:101DB000C80301D5302700E02027880404D505E0BA
:101DC00041463846B0476D1C641EF9D52846BDE82B
:101DD000F08100000149FFF70BBB00001800002054
:101DE00010B5044601E0FFF703FB14F8010B0449AA
:101DF0000028F8D1BDE810400A20FFF7F9BA00002A
:101E00001800002000000000000000000102030490
:101E1000060708090000000001020304200000007A
:101E200020000000000C01400018014000000000EC
:101E30000100000055736167654661756C745F4809
:101E4000616E646C65720D002E2E2F7461736B2FA2
:101E50007372632F74696D65725F6C6973742E633E
:101E600000000000881E0008000000201000000094
:101E700050190008981E00081000002020080000DB
:101E800060190008000000000000000001000000D0
:081E90001000000000A24A044A
:0400000508000131BD
:00000001FF
