:020000040800F2
:10000000480A002045010008A90E0008E10C00087C
:100010008D0E0008BD020008191100080000000044
:10002000000000000000000000000000EF0E0008CB
:10003000C902000800000000ED0E0008F10E0008E3
:100040005F0100085F0100085F0100085F01000810
:100050005F0100085F0100085F0100085F01000800
:100060005F0100085F0100085F0100085F010008F0
:100070005F0100085F0100085F0100085F010008E0
:100080005F0100085F0100085F0100085F010008D0
:100090005F0100085F0100085F0100085F010008C0
:1000A0005F0100085F0100085F0100085F010008B0
:1000B0005F0100085F0100085F0100085F010008A0
:1000C0005F0100085F0100085F0100085F01000890
:1000D0005F010008091100080D1100085F01000808
:1000E0005F0100085F0100085F0100085F01000870
:1000F0005F0100085F0100085F0100085F01000860
:100100005F0100085F0100085F0100085F0100084F
:100110005F0100085F010008910F00085F010008FF
:100120005F0100085F0100085F0100085F0100082F
:10013000DFF80CD000F0A0F8004800476511000877
:10014000480A00200648804706480047FEE7FEE7C9
:10015000FEE7FEE7FEE7FEE7FEE7FEE7FEE7FEE777
:10016000450F000831010008202A04DB203A21FA5B
:1001700002F00021704721FA02F3D040C2F12002C0
:1001800091400843194670470649074A086850439A
:1001900043F2390210440860400870470149086082
:1001A00070470000000000206D4EC641D2B201E051
:1001B00000F8012B491EFBD270470022F6E710B56C
:1001C00013460A4604461946FFF7F0FF204610BDC5
:1001D00010B5044604E00B7800F8013B03B1491C5C
:1001E000521EF8D2204610BD421C10F8011B0029F7
:1001F000FBD1801A704730B505460020034600E069
:100200005B1C934205D2EC5CC85C201A01D1002C27
:10021000F6D130BD2DE9F05F0546002092469B46A1
:1002200088460646814640241BE02846414647460C
:100230002246FFF799FF53465A46C01A914110D300
:1002400011461846224600F029F82D1A67EB0108DE
:100250004F4622460120002100F020F817EB00094C
:100260004E41201EA4F10104DFDC484631462A46F7
:100270004346BDE8F09F0000064C074D06E0E068ED
:1002800040F0010394E8070098471034AC42F6D3DD
:10029000FFF752FFEC2600080C270008202A04DB99
:1002A000203A00FA02F1002070479140C2F1200389
:1002B00020FA03F31943904070470000014802F010
:1002C00065F9FEE71C260008704700002DE9FC4F89
:1002D00081465C4806234FF001084FF00F0E4FF0A7
:1002E000000A8145584808BF052348444FEAB02218
:1002F000052A38BF4FEAB023009300220023102ABA
:1003000008BFBDE8FC8F0C6808FA02F73C4200F019
:1003100096804D68032D16D9112D26D0122D28D088
:100320004C48854213D04C48854210D04B488542FA
:100330000DD04B4885420AD04A48854207D04A48EA
:10034000854204D022E0DFE805F002181B1F8C680C
:1003500044B1012C14BFC9F81470C9F810704FF0E3
:10036000080A13E04FF0040A10E0CC6804F1040A14
:100370000CE0CC6804F10C0A08E0D1F80CA005E010
:10038000CC6804F1080A01E04FF0000A1C46484618
:10039000082A28BF203C28BF043006680EFA04F55E
:1003A0000AFA04F426EA05052C430460C879C0065D
:1003B00045D55F48254E22F0030504460068B34644
:1003C000354440F001002060206800F001000190F9
:1003D00003F00C00019E0EFA00F4244EB446AE5910
:1003E00026EA0404009E06FA00F0204345F80C00BB
:1003F0004D68E803DBF8000054BF20EA070440EA38
:100400000704CBF80040A803DBF8040054BF20EA3F
:10041000070440EA0704CBF80440E802DBF80800D0
:1004200054BF20EA070440EA0704CBF80840A802BA
:1004300007480446006854BFB8433843206004337B
:1004400001325CE7001C014000F8FEBF00040140DF
:100450000C040140000011100000121000002110D7
:1004600000002210000031100000321008FCFFFFD5
:10047000002A08BF090401617047000005480068B0
:10048000704700BF1A48034900780A6810440860A2
:10049000704700BF4006002080B59948016841F0D0
:1004A00010010160032000F071F8002000F004F852
:1004B00000F020F8002080BD70B50D4E04464FF4CA
:1004C0007A713078B1FBF0F09C490968B1FBF0F02B
:1004D00000F0F0FA01250F2C08D838B94FF0FF30A2
:1004E00021460022002500F033F87460284670BDD4
:1004F00004000020E0B50E48016841F001010160F0
:10050000016801F0010101910199416841F08051B8
:100510004160406800F0805000900098052000F095
:1005200035F804480222016862F31A6101608CBD4B
:10053000181002400400014000F01F010122400990
:1005400002FA01F1014A42F82010704700E100E090
:1005500080B5144B1B68C3F3022CBCF1030E8CF066
:1005600007034FF0FF3C38BF4FF0000E042B28BFAD
:1005700004230CFA03F399430CFA0EF301FA0EF17B
:100580009A431143BDE8804000F09EBC05494FF6F8
:10059000FF030A681A4060F30A2203481043086008
:1005A000704700BF0CED00E00000FA057047000046
:1005B0002DE9F8430D4652490446086800F007004B
:1005C000A84209D2086820F007002843086008689C
:1005D00000F00700A84253D12068684F8946810780
:1005E00011D5410742BF396841F4E0613960010724
:1005F00042BF396841F4605139603968A26821F01E
:10060000F00111433960C00733D1D9F8000000F080
:100610000700A8420CD9D9F8000020F007002843B1
:10062000C9F80000D9F8000000F00700A84227D15F
:100630002068410705D53968E26821F4E06111437B
:100640003960000706D53868216920F4605040EA17
:10065000C100386000F076F839682A4A0024C1F3F6
:100660000311515CC840354908600020FFF724FFA2
:1006700007E06068012808D157F8041C89030DD4ED
:100680000124204601B0BDE8F08357F8041C02287D
:1006900002D18901F4D501E08907F1D5396821F04B
:1006A000030108433860FFF7E9FE0646606841F23F
:1006B000883801280CD0022815D1386800F00C00C9
:1006C0000828A2D0FFF7DAFE801B4045F5D914E0D8
:1006D000386800F00C00042897D0FFF7CFFE801B8D
:1006E0004045F5D909E0386810F00C0F3FF48DAFA4
:1006F000FFF7C4FE801B4045F5D90324C1E700BFC6
:1007000000200240B0250008014801210160704727
:100710004C004242E5481949094A00680968C1F39A
:100720000221515CC8407047E0481449044A0068FF
:100730000968C1F3C221515CC84070470C00002019
:10074000C025000810B50D4C0D48226802F00C03BE
:10075000082B18BF10BDC2F383430AA1CB5CD103A1
:1007600002D40D48584310BD21680AA25843C1F372
:100770004041515CB0FBF1F010BD00BF04100240DD
:1007800000127A0002030405060708090A0B0C0D83
:100790000E0F10100102000000093D0010B5054CBD
:1007A0002068000658BF10BDFFF700FF8020A07032
:1007B00010BD00BF081002402DE9FC41044600783E
:1007C000B84EC00749D0706800F00C00042817D05C
:1007D000706800F00C00082802D17068C0030FD4C4
:1007E000606898B1B0F5803F06D03168B0F5A02FB1
:1007F00020D141F480203060306840F480301FE028
:100800003068800329D5606838BB07E1306820F480
:1008100080303060306820F480203060FFF72EFE9A
:1008200005463068800318D5FFF728FE401B642872
:10083000F7D9E2E021F480303060306820F4802085
:100840003060FFF71BFE05463068800305D4FFF7D4
:1008500015FE401B6428F7D9CFE0207880072BD500
:10086000706810F00C0F07D0706800F00C000828BA
:1008700009D17068C00306D43068800715D5206997
:10088000012812D0CAE02169874800297CD00121C3
:100890000160FFF7F3FD05463068800705D4FFF7D8
:1008A000EDFD401B0228F7D9A7E03068616920F010
:1008B000F80040EAC1003060207800072ED5A0691A
:1008C00078B179480121C0F88014FFF7D7FD0546BB
:1008D000706A800715D4FFF7D1FD401B0228F7D9B5
:1008E0008BE071480021C0F88014FFF7C7FD054672
:1008F000706A800712D5FFF7C1FD401B0228F7D9A7
:100900007BE06A484FF4FA510068B0FBF1F00190C7
:1009100000BF0198411E00280191F9D120784007BD
:1009200074D5F069C0000BD4F0694FF0010840F0B5
:100930008050F061F06900F080500090009801E074
:100940004FF000085A4F3868C0050FD4386840F49B
:1009500080703860FFF792FD05463868C00505D401
:10096000FFF78CFD401B6428F7D946E0E068D0B162
:10097000012805D0316A05282BD141F004003062EE
:10098000306A40F001002AE000210160FFF776FDA7
:100990000546306880077FF58FAFFFF76FFD401B7E
:1009A0000228F6D929E0306A20F001003062306A6E
:1009B00020F004003062FFF761FD054641F2883700
:1009C000306A80071BD5FFF759FD401BB842F7D9A5
:1009D00013E021F001003062306A20F00400306240
:1009E000FFF74CFD054641F28837306A800706D490
:1009F000FFF744FD401BB842F7D903204FE0B8F1A0
:100A0000000F1EBFF06920F08050F061E769002FF1
:100A100044D0706800F00C00082801D101203EE0AD
:100A20002149002088460866FFF728FD0546022F69
:100A30000AD147463068800110D5FFF71FFD411BE2
:100A400003200229F6D92AE03068800126D5FFF775
:100A500015FD411B03200329F6D320E0206AB0F5E1
:100A6000803F05D17168A26821F4003111437160A3
:100A70007168626A104321F47411084370600120A8
:100A80003866FFF7FBFC04463068800106D4FFF7A8
:100A9000F5FC011B03200229F6D900E0002002B07A
:100AA000BDE8F08100100240000042420C0000202E
:100AB00000700040411E0020B0EB116F1CBF0120F0
:100AC0007047044AF023516003490B70072190607E
:100AD0001160704710E000E023ED00E090F83C303A
:100AE0000222012B1AD080F83D200268536823F0BF
:100AF00070035360D1F800C0536843EA0C0353609D
:100B0000936823F080039360496893681943916068
:100B10000022012180F83C2080F83D1010467047EB
:100B2000B0B110B5044690F83D0028B9002084F813
:100B30003C00204600F00EF80220211D84F83D0004
:100B4000206800F035FA012084F83D00002010BD37
:100B5000012070470068B049884218BF7047E0B56F
:100B600009480022016841F010010160002100687D
:100B700000F01000019001983620FFF7E9FC3620C4
:100B8000BDE88C40FFF7D8BC1C1002400068C1686B
:100B900041F00101C160016841F0010101600020E4
:100BA000704750B310B5044690F8390028B90020BA
:100BB00084F83800204600F023F8242084F8390017
:100BC0002068C16821F40051C160204600F02AFA73
:100BD0002068016921F490410161416921F02A01F5
:100BE0004161C16841F40051C16000202021E063EF
:100BF00084F8391084F83A1010BD012070470000C5
:100C000070B586B00026A049CDE90466CDE902663C
:100C10000068884233D08E4988425FD16D486E4C5F
:100C200002AD016841F480410160016801F4804136
:100C300001910199016841F00401016029460068B1
:100C400000F0040001900198032005900220039019
:100C50004FF4007002902046FFF738FB0020294631
:100C6000CDE903004FF4806002902046FFF72EFB91
:100C7000252000210022FFF76BFC25202CE05548A1
:100C8000554C02AD416841F400314160416801F4C6
:100C9000003101910199016841F004010160294688
:100CA000006800F0040001900198032005900220E4
:100CB0000390042002902046FFF708FB0820CDE9AE
:100CC0000366294602902046FFF700FB26200021FC
:100CD0000022FFF73DFC2620FFF72EFC06B070BD7A
:100CE00001A001F053FCFEE7486172644661756C37
:100CF000745F48616E646C65720D00002DE9F04F01
:100D000085B04FF000093348334C00224FF02008E3
:100D1000CDF81090016804F5805741F04001016062
:100D2000016801F0400100910099016841F0100153
:100D30000160016801F0100100910099016841F023
:100D400004010160016801F004010091009901684B
:100D500041F0080101602021006800F008000090C7
:100D600000983846FFF784FB04F580644FF49071D7
:100D700000222046FFF77CFB0DF1040B1C20DFF85E
:100D80005CA0CDE90299019038465946D04702252A
:100D9000012638465946CDE90355CDE90186D047AD
:100DA0000D485946CDF80C90CDE90169D047204651
:100DB0005946CDE90355CDE90186D0474FF48070FF
:100DC0000495CDE90269594601902046D04705B007
:100DD000BDE8F08F1810024000080140CD02000865
:100DE0001CB50C4C80200C4B002140F2E732A06176
:100DF0004720C4E90032C4E902102046CDE90011C1
:100E0000FFF78EFE69462046FFF768FE2046FFF793
:100E1000BDFE1CBD700000200010004010B50B4C42
:100E2000B64B4FF4E13200200C21C4E90032C4E992
:100E30000200C4E90401C4E906002046FFF7B1FE40
:100E40002068C16841F02001C16010BDB0000020E1
:100E50000038014010B50B4C0B4B4FF4E132002031
:100E60000C21C4E90032C4E90200C4E90401C4E968
:100E700006002046FFF795FE2068C16841F020017A
:100E8000C16010BDF00000200044004001A001F04E
:100E90007DFBFEE74D656D4D616E6167655F486185
:100EA0006E646C65720D000080B503A001F06EFBEE
:100EB000BDE88040FFF772BC4E4D495F48616E64EB
:100EC0006C65720D0000000010B5064A00F00F03BB
:100ED0000028054C02444FEA0110B8BF1A191070DF
:100EE00010BD00BF00E400E014ED00E07047704763
:100EF000FFF7C8BAB0B590B000244FF4E010022557
:100F000001210B94CDE909440F904FF480300E90ED
:100F10000D950C910A91CDE907040920069006A8C9
:100F2000FFF74AFC4FF480600221CDE904000F2056
:100F3000CDE90254019001A8FFF73AFBFFF7E4FB6B
:100F400010B0B0BD0E480F4A016841F001010160C8
:100F5000416811400C4A416001681140016001681C
:100F600021F480210160416821F4FE0141604FF4C9
:100F70001F01816005484FF000610160704700BFAC
:100F8000001002400000FFF8FFFFF6FE08ED00E051
:100F900010B5064C2068C00708BF10BD00F0F8FD72
:100FA000206820F00100206010BD00BF101000403C
:100FB0000268B0F1804F0ED0154B98420BD0154B04
:100FC000984208D0144B984205D0144B984202D056
:100FD000134B984208D14B6822F45C7CCA6823F416
:100FE000407343EA0C031A434B6922F080021A4310
:100FF00002608A68C2620A688262084A904202D02D
:10100000074A904201D1096901630121416170479A
:101010000004004000080040000C00400034014083
:10102000002C01402DE9F0470446006841F20C66AF
:101030000169E26821F4405111430161A168D4E9DA
:101040000423C7681143B74319433943C160416959
:10105000A26921F44071114341612849884214BFBB
:10106000DFF89CA0DFF89CA0D047D4F8049080461D
:10107000D04767680646D04761681925BF006843B6
:1010800006FB05F38900B3FBF7F3B0FBF1F0642135
:10109000B0FBF1F202FB1102181A4FEA8903104467
:1010A000322202EB001008FB05F2B0FBF1F0B2FBBC
:1010B000F3F200F0F000B2FBF1F100EB0116D047C3
:1010C000616868438900B0FBF1F7D0476168684305
:1010D00064228900B0FBF1F0B0FBF2F3391A03FB94
:1010E00012000844322101EB00102168B0FBF2F03D
:1010F00000F00F0030438860BDE8F0870038014001
:10110000150700082907000800F0DCBF0148006847
:10111000704700BF04440040014801F037FAFEE781
:101120001C26000800F0E6B903484068704700BF7D
:1011300001480088704700BF10000020064A52F89E
:1011400020C0064A32F82030054810F821206046B9
:101150001946FFF78DB900BFD0250008C825000843
:10116000D825000800F0A0F800F050F80020012178
:10117000FFF7E4FF01200121FFF7E0FF05A001F0E8
:1011800005FA00F02DFE00F025FA00F049F800F015
:1011900083FBF6E773797374656D207265626F6F18
:1011A000742073756363657373200D0080B53D49CA
:1011B0004A780B78013202F01F0E9E4504BF0020D2
:1011C00080BDD0F800C04A780B1D02EB420243F804
:1011D00022C0D0F804C04A7802EB420203EB82023C
:1011E000C2F804C090F809C04A7802EB420203EB4F
:1011F000820282F809C0007A4A7802EB420203EBCD
:1012000082021072012081F801E080BD80B500F0FB
:10121000CDFD00F0C9F9BDE8804000F05BBC0000E6
:10122000F0B585B01F4E6F4603AD707831788842B7
:1012300004BF05B0F0BD324612F8040B00EB4000CD
:1012400052F82000317801EB410102EB810149683D
:10125000337803EB430302EB83035B7A347804EBCC
:101260004404012B02EB8402127A347804F1010465
:1012700004F01F0434700BD18DF8092000918DF813
:101280000800000CADF80600384600F085FECCE7FB
:10129000000A8DF8112003918DF81000284600F007
:1012A0002BFAC2E73001002080B5FFF7F5F8FFF711
:1012B00021FEFFF723FDFFF7B1FDFFF7CBFDBDE8F2
:1012C0008040FFF78DBD000060B170B5A64E0C46A2
:1012D0000546200608BF70BD15F8010B3168884728
:1012E000013CF6E79D489E499E4B602200F0F6BE09
:1012F0002DE9F04F87B00DF104090025142148466F
:101300008DF81B508DF81A50FEF757FFDFF89481C7
:1013100098F8680038B30DF11B000DF11A0100F0C8
:10132000F1F8E0B105469DF81B000026404400F1AD
:10133000040A5D48041D0EE027683846FEF754FF96
:10134000C0B2A84205D1384651462A46FEF753FF9F
:1013500068B10C340136042EEED954A000E0644884
:1013600001F014F90025284607B0BDE8F08F9DF87C
:101370001AA000270DF11B000DF11A0B4FE09DF88C
:101380001B1008EB010212F8041F30292BD15178F1
:1013900041F02001782926D10A2863D800210232A1
:1013A000831E49F827101BE01678392E04D82F2EFB
:1013B00058D96FF02F050CE0662E53D8602E02D955
:1013C0006FF0560505E0A6F14105052D4AD86FF0EE
:1013D00036052E44013B013206EB011149F8271076
:1013E0001E06E1D117E00023014649F8273010E03E
:1013F0001678303E092E35D803EB830301395E00A1
:1014000049F8276012F8016B06EB4303303B49F8BB
:1014100027300E06ECD1824401370DF11B0098F8FD
:1014200068205FFA8AF191420BD29DF81A100131BF
:101430008DF81B10594600F065F8052F18BF0028DD
:101440009DD12179F8B281420AD1052828D8DFE858
:1014500000F0030B10161C2154F8040C80471FE009
:101460001DA07DE717A07BE754F8041C019888476E
:1014700016E054F8042CDDE90101904710E001AAC0
:1014800054F8043C07CA98470AE001AB54F8047CBE
:101490000FCB04E001AE54F8047C4FCE0096B84761
:1014A000012560E700040020E025000863616E204C
:1014B0006E6F742066696E64207468617420636D59
:1014C000640D0000706172616D61746572206572F7
:1014D000726F720D00000000706172616D74657250
:1014E000206E756D206E6F74206D617463680D00E1
:1014F0008B26000820490A685206FCD5C2B24A6011
:10150000704700BF10B5F8B1F1B10478DFF874C6C8
:1015100001E0013404709CF868E0E3B273450AD23C
:1015200063441B79202BF4D005E00CEB0302127905
:10153000202A06D001340C70E3B29CF86820934254
:10154000F3D30078201A07E0A9480549054B4FF46A
:10155000DD7200F0C3FD0020C0B210BD30260008CF
:10156000AF260008982600080004002002490A68F7
:101570005206FCD54860704700380140012080F3D6
:1015800010880848017801310170704705480178DA
:1015900001390170007800B17047002080F3108895
:1015A000704700BF6C00002010B5894C4FF4A67145
:1015B0002046FEF702FEFF2084F80501002084F893
:1015C0000401C4F80001202084F8060184F84A01CF
:1015D00010BD00BFB0B51B4D002495F8490170B394
:1015E00095F84A0105EBC000417917A000F076FD9F
:1015F00095F84A0155F83000804795F84A0128448B
:1016000080F8084195F84A0105EBC00040791F2891
:1016100008D895F84A01002105EBC000407928441C
:1016200080F8281195F84A01012405EBC000807963
:1016300085F84A0195F84901013885F849012046A5
:10164000B0BD00BFB4020020257500002DE9F047B1
:10165000114F12A097F84A4197F8491100F03EFD4A
:1016600016A000F093FF1E4D0FF26C080FF27409E4
:101670000FF2780A202C08BFBDE8F08707EBC406FC
:1016800040467179A84731794846A84757F8341041
:101690005046A847B479EDE7B40200200D0A2D2D7D
:1016A0002D2D20705461736B206C697374206E75DE
:1016B0006D202575202D2D2D0D0A00004944202078
:1016C000205072696F7269747920202046554E5FF0
:1016D000414444520D000000252D357500000000E6
:1016E000DD200008252D31317500000030782530CF
:1016F00038780D0A00000000F8B570B101790029B2
:1017000060D041791F290DD8314A0A4492F8282126
:1017100042B130A000F0E2FC57E035483D4B44A117
:10172000A5220FE0DFF8A8C09CF848219CF84A11D8
:101730009CF84A319CF849611F2E09D92C48354B39
:101740002CA1742200F0CAFC3FE0013202F01F021B
:10175000D4B20CEB040595F80861002EF5D105F51F
:10176000847ED0E900564CF834500CEBC40466601B
:10177000057902E0B679194633460CEBC306377992
:10178000AF42F7D20CEBC1019CF84A5106319D42A1
:1017900008BF0CF5A5710A70A3719CF849110131BD
:1017A0008CF8491101218EF8001040791F289CBF48
:1017B000604480F82811501C00F01F008CF848018C
:1017C000012003E014A000F0E1FE002001B0F0BD14
:1017D000B40200207461736B5F69643A25752061FF
:1017E0006C7265616479206578697374730D0A00A1
:1017F0003026000873797374656D20705461736BC3
:10180000206D656D65726F792069732066756C6CEB
:1018100000000000552600087461736B5F707269E8
:101820006F726974795F69735F7A65726F0D00001A
:10183000706F696E746572206973206E756C6C00D0
:101840002DE9FE43044600F0A9FA18B39C4800F0C5
:101850009DFEFFF769FCFEF7A1FCDFF86498002607
:101860004FF0020864276D4611E0FEF78DFC90FBF7
:10187000F7F18DF80980CDF8049001FB17008DF881
:1018800008008DF801002846FFF790FC0136F0B201
:10189000A042EAD3BDE8FE832DE9FE4FDFF804A2A3
:1018A0009AF86C00032818BFBDE8FE8F9AF86A000A
:1018B00022281FD009283BD00D2800F08680202840
:1018C00000F09180212800F09280082840F09C8050
:1018D000DAF8001008208847DAF80010202088473E
:1018E000DAF80010082088479AF86800002818BF26
:1018F000013887E09AF86800002840F085809AF85F
:1019000069100AF10400FFF7DFFC9AF869008AF811
:1019100068006B4800F03AFEFFF7EAFC10B969482E
:1019200000F034FE9AF868008AF86900002069E047
:10193000DFF894819AF8685000270AF104094FF003
:10194000000B8DF80870019708F1040414E0266874
:101950003046FEF749FCC0B2A8420BD33046494698
:101960002A46FEF748FC28B95FFA8BF001A90BF173
:10197000010B0F540C340137052FE8D15FFA8BF6B9
:10198000002E41D0012E44D19DF8040000EB400010
:1019900008EB800045682846FEF726FCC6B2804664
:1019A000484629463246FEF713FC202008F1010480
:1019B00009F806009AF8681009EB0100611AC9B22B
:1019C000FFF782FC8AF868401EE03D4800F0DEFD2B
:1019D000FFF78EFC9AF86800B0B100218AF8681011
:1019E0008AF8690010E030A000F0D0FD0CE09AF811
:1019F000680048B99AF869100AF10400FFF764FC1E
:101A00009AF869008AF8680001208AF86C00BDE83D
:101A1000FE8F2B4800F0BAFD01AF0FF2B00B344639
:101A20003D460AE015F8010B00EB400008EB800092
:101A30004168584600F052FB013C002CF2D120488E
:101A400000F0A4FD9DF80400012200EB400008EB2B
:101A5000800041689AF8680015E0C2B201258B5CED
:101A6000ECB2B4420BD23C5D013504EB440408EB0C
:101A700084046468A45CA342F2D0002200E0012246
:101A800001308AF86800D207E7D101388AF8680087
:101A9000C2B24846FEF79CFB9AF86810FFF714FCA8
:101AA000B2E700BF000400207561727420726563A4
:101AB00076206F76657220666C6F770D00000000EF
:101AC000962600088B260008E025000825732020B4
:101AD0002000000010B52B4C6C21201DFEF76DFB83
:101AE00002482060012084F86C0010BD6D150008CC
:101AF000B0B5244D044661B295F86C0000293FDB77
:101B000003283DD095F86B0058B1411C022885F898
:101B10006B101DD0012827D15B2C31D0002085F817
:101B20006B001F2C08D81B2C02BF012085F86B000E
:101B3000B0BD85F86A4009E029682046884795F8D5
:101B40006800632814D1202085F86A00032015E07E
:101B5000A4F14100C0B2032806D8032085F86C0028
:101B6000A4F1200085F86A00002085F86B00B0BD64
:101B7000411C284485F868100471022085F86C0027
:101B8000B0BD00BF00040020202000F0F9BC000020
:101B9000034841680131416001880131018070478B
:101BA000100000202DE9F047DFF818A181469AF8CF
:101BB000CC519AF8CE419AF8CE719AF8CD012028EE
:101BC00078D29AF8CD011F2888BFBDE8F0878846F3
:101BD000FFF7AEFAB8F1200F03D027E0691C01F03F
:101BE0001F05E9B20AEB010292F88C31002BF5D106
:101BF00002F5C67CD9E90032D9F808E001EB4101D1
:101C0000A8464AF821300AEB8101C1E9012E6A1C7D
:101C1000012102F01F028CF800108AF8CC2199F8FB
:101C200009201F2A9CBF524482F8AC115FFA88F148
:101C300001EB41010AEB810CACF80400AAF8840125
:101C400002E0917A3C460F4607EB47020AEB82021C
:101C50009388D588C31A99B28D42F2D90CF1060245
:101C600008E0A97A3C4601EB41030F460AEB8303E7
:101C70009B88C31A07EB47010AEB81051188EE88A0
:101C8000F31A9BB29942ECD204EB44009AF8CE11BD
:101C90000AEB80000A30B94208BF0AF5E77080F805
:101CA00000808CF80A709AF8CD0101308AF8CD01D5
:101CB000BDE8F087E64B04A00DA18D22BDE8F047FA
:101CC00000F00CBA700400204572726F7220222559
:101CD0007322206661696C6564206174206C696E92
:101CE0006520256420696E2025730D0A0000000020
:101CF00074696D657220705461736B206D656D65DC
:101D0000726F792069732066756C6C002DE9F04163
:101D1000B74D044695F8CE71FFF730FC95F8CF012A
:101D200005F5E776013085F8CF01281900F5D6785A
:101D3000FFF72CFCFF20002121E085F8894102E01B
:101D400012F80A7F164607EB470205EB8202537A28
:101D5000A342F5D1202F01D120270EE01F2C98BFE0
:101D600088F80010937A3370EB1983F88C1195F88A
:101D7000CD31013B85F8CD31977A85F8890107EBA4
:101D8000470205EB8202527AFF2AD6D195F8CF019D
:101D9000013885F8CF01BDE8F08100BF944890F884
:101DA000CD01B0FA80F04009704700BF10B5904CEB
:101DB0004FF4E8712046FEF700FAFF2000214FF6AD
:101DC000FF7284F88901A4F88411A4F8862184F8AC
:101DD00088012020C4F8801184F8CE0110BD00BF16
:101DE0002DE9F04F89B0354F0DF1040A20215046FE
:101DF00097F8CE61FEF7E1F997F8CD0100285AD0A7
:101E000097F8CF01002856D1FFF792F983460FF2D9
:101E1000B0080024A7F8840127E057F8200028B173
:101E2000697A404600F05AF928688047287A0138D4
:101E30002872000604D0E0B201340AF800600EE017
:101E4000284610F8091F1F2904D8007800213844BB
:101E500080F8AC1107EB0900002180F88C1197F88D
:101E6000CD01013887F8CD01AE7A5FFA86F909EB2A
:101E7000490007EB8005A988EA88ABEB010189B22C
:101E80009142CAD8E4B201AD87F8CE6111E015F8ED
:101E9000011B01EB410007EB8000027A037AFE2A66
:101EA00008BF013303720020FFF77CFE00F00CF83E
:101EB000013C002CEBD109B0BDE8F08F700400208C
:101EC000252D3275000000002DE9F84FDFF858B0DD
:101ED00016A09BF8CE719BF8CD1100F0FFF81CA066
:101EE00000F054FB264E274D0FF28C080FF2980994
:101EF0000FF29C0A202F08BFBDE8F88F07EB4704BC
:101F000040460BEB8407797AB047397A2846B047C8
:101F1000F9882846B0475BF824104846B047B9888E
:101F20005046B047BF7AE5E7700400200D0A2D2D1A
:101F30002D2D74696D657220705461736B206C690E
:101F40007374206E756D202575202D2D2D0D0A00C2
:101F5000494420202052657065617420202050651E
:101F600072696F6420202046554E5F4144445220E0
:101F700020205469636B0D00252D3575000000008D
:101F8000DD200008862600083078253038782000CB
:101F90002534750D0A000000B0B508B30446FFF7FC
:101FA000EDFA134D95F8CF01013085F8CF01FFF719
:101FB000EDFA607A1F2809D8291891F8AC1129B1D7
:101FC000FFF7A4FE617A0BA000F088F820462021DC
:101FD000FFF7E8FD95F8CF01013885F8CF01B0BDD6
:101FE0001B4B0CA016A1D22200F078F8FEE700BF30
:101FF0007004002074696D65725F69643A2575200C
:10200000616C7265616479206578697374730D0A17
:1020100000000000417373657274696F6E202225A1
:102020007322206661696C6564206174206C696E3E
:102030006520256420696E2025730D0A00000000CC
:10204000706F696E746572206973206E756C6C00B8
:102050006D2600082DE9FE430446FFF79FFE50B3AE
:10206000164800F093FAFFF75FF8FEF797F8DFF8ED
:102070005080002601276425E94619E0FEF784F820
:10208000FEF782F890FBF5F18DF809708DF800707D
:10209000CDF8048001FB15008DF80800C0B200EBFC
:1020A00080004000ADF802004846FFF77FF8013697
:1020B000F0B2A042E2D3BDE8FE8300BF962600083E
:1020C000891B000804480168890658BF70474068AA
:1020D000C0B2FFF70DBD00BF003801400FB4054B83
:1020E00010B503A9044A029800F018F810BC5DF876
:1020F00014FB0000251100081800002002E008C8A9
:10210000121F08C1002AFAD170477047002001E071
:1021100001C1121F002AFBD1704700002DE9FF4FBB
:102120008DB00F460546002606E025280BD0DDE9D8
:102130000F1290476D1C761C28780028F5D111B03D
:102140003046BDE8F08F0024A246A1460122EC49AA
:1021500000E0044315F8013F203B02FA03F0084277
:10216000F7D128782A2810D06FF02F022878A0F114
:102170003001092914D80AEB8A0102EB410144F02D
:10218000020400EB010A6D1CF0E701CF5FEA000AD0
:1021900003D544F40054CAF1000A44F002046D1C53
:1021A00028782E2817D115F8010F44F004042A28A6
:1021B0000ED06FF02F022878A0F1300109290AD83B
:1021C00009EB890102EB410100EB01096D1CF2E70B
:1021D00057F8049B6D1C28786C280FD006DC4C281F
:1021E00017D068280DD06A2814D104E0742810D0C4
:1021F0007A280FD10DE044F400140AE044F480146E
:1022000001E044F440146978814202D104F580145D
:102210006D1C6D1C2A786E2A1FD00CDC632A31D00D
:1022200004DC002A8BD0582A11D1A3E0642A68D09C
:10223000692A0CD165E0732A2ED004DC6F2A73D092
:10224000702A04D19BE0752A6FD0782A6ED0104690
:10225000DDE90F129047761C50E1C4F302500228CA
:1022600006D0032809D0042801CF09D0066045E133
:1022700001CFF117C0E9006140E101CF06803DE1E7
:1022800006703BE117F8040B8DF8000000208DF874
:102290000100EB46012003E057F804BB4FF0FF308C
:1022A00061074FF0000102D40DE008F101018846FA
:1022B00049450FDA8045F8DB1BF808100029F4D1F6
:1022C00008E008F1010188468142FADB1BF808109A
:1022D0000029F6D1DDE90F23AAEB0800814621464B
:1022E00000F036F9304400EB080604E0DDE90F1297
:1022F0001BF8010B9047B8F10108F7D22146484678
:10230000F7E00A21C4F302534FF0000B0891022BAF
:1023100004D001CFC117032B09D00AE0FF1D27F01D
:102320000707F7E8020108E032E01FE020E000B212
:10233000C117042B01D140B2C117031E71F1000374
:1023400007DA4FF0000CD0EB0C006CEB01012D23F1
:1023500002E0230504D52B238DF82430012303E06C
:10236000E30701D02023F7E7984658E00A2110E060
:1023700010210EE010204FF0000B08900CE010210F
:102380004FF0000B44F004044FF00809089103E0FB
:1023900008214FF0000B0891C4F30253022B04D024
:1023A00001CF0021032B06D006E0FF1D27F0070711
:1023B000F7E8020103E080B2042B00D1C0B24FF075
:1023C000000823072BD5702A07D0DDF820C08CF039
:1023D000100C5CEA0B0C05D00EE040238DF8243085
:1023E000012308E050EA010306D030238DF82430A1
:1023F0008DF8252002239846DDF820C08CF0080CCB
:102400005CEA0B0C0BD150EA010301D1630706D53E
:1024100030238DF824304FF00108A9F10109582A22
:1024200004D038A20B9208AA0A920BE03AA2F9E76C
:102430005B46089AFDF7EEFE0B9B9B5C0A9A521EC8
:102440000A92137050EA0102F2D10A98ADEB000033
:1024500000F1200B600702D524F4803401E04FF036
:102460000109D94502DDA9EB0B0000E0002000EBDB
:102470000B0141440890AAEB010AE00306D4DDE910
:102480000F232146504600F063F806444FF0000940
:1024900008E009A911F80900DDE90F12904709F1D8
:1024A0000109761CC145F4DBE0030CD5DDE90F23FF
:1024B0002146504600F04CF8064404E0DDE90F12D6
:1024C00030209047761C0899481E08900029F5DCBA
:1024D00008E00A980A990078491C0A91DDE90F1270
:1024E0009047761CBBF10001ABF1010BF1DC2146FA
:1024F0005046DDE90F2300F019F806446D1C1BE679
:1025000009280100303132333435363738396162C9
:10251000636465660000000030313233343536378D
:102520003839414243444546000000002DE9F0415E
:10253000044600251E461746880404D405E03946A3
:102540002020B0476D1C641EF9D52846BDE8F081F7
:102550002DE9F041044600251E469046C80301D5EA
:10256000302700E02027880404D505E0414638469E
:10257000B0476D1C641EF9D52846BDE8F081000007
:102580000149FEF7CFBD00001800002010B5044639
:1025900001E0FEF7C7FD14F8010B04490028F8D14B
:1025A000BDE810400A20FEF7BDBD00001800002065
:1025B00000000000000000000102030406070809F3
:1025C00000000000010203042000000020000000C1
:1025D000000C014000180140000000000100000054
:1025E000C91E0008CD260008000000004D16000896
:1025F000C32600080000000055200008E12600085E
:102600000100000041180008D82600080100000061
:10261000D5150008BF26000800000000557361674B
:10262000654661756C745F48616E646C65720D001F
:102630004572726F722022257322206661696C6573
:1026400064206174206C696E6520256420696E20A9
:1026500025730D0A002E2E2F7461736B2F73726316
:102660002F7461736B5F6C6973742E63002E2E2F51
:102670007461736B2F7372632F74696D65725F6C15
:102680006973742E6300252D397500696E70757439
:10269000206572726F720D002E2E2F7461736B2F76
:1026A0007372632F7465726D696E616C2E63007056
:1026B0006F696E746572206973206E756C6C007042
:1026C0006F70007461736B7072696E740074696D01
:1026D00065727072696E74007461736B7465737483
:1026E0000074696D657274657374000010270008CA
:1026F0000000002010000000FC2000082027000837
:1027000010000020380A00000C2100080000000022
:1027100000000000010000001000000000A24A04B8
:0400000508000131BD
:00000001FF
